{
  "_format": "hh-sol-artifact-1",
  "contractName": "LiquidStaking",
  "sourceName": "contracts/LiquidStaking.sol",
  "abi": [
    {
      "inputs": [],
      "stateMutability": "nonpayable",
      "type": "constructor"
    },
    {
      "inputs": [
        {
          "internalType": "address",
          "name": "owner",
          "type": "address"
        }
      ],
      "name": "OwnableInvalidOwner",
      "type": "error"
    },
    {
      "inputs": [
        {
          "internalType": "address",
          "name": "account",
          "type": "address"
        }
      ],
      "name": "OwnableUnauthorizedAccount",
      "type": "error"
    },
    {
      "anonymous": false,
      "inputs": [
        {
          "indexed": true,
          "internalType": "address",
          "name": "caller",
          "type": "address"
        },
        {
          "indexed": false,
          "internalType": "uint256",
          "name": "fee",
          "type": "uint256"
        },
        {
          "indexed": false,
          "internalType": "uint256",
          "name": "timestamp",
          "type": "uint256"
        }
      ],
      "name": "ChangeFee",
      "type": "event"
    },
    {
      "anonymous": false,
      "inputs": [
        {
          "indexed": true,
          "internalType": "address",
          "name": "caller",
          "type": "address"
        },
        {
          "indexed": true,
          "internalType": "address",
          "name": "to",
          "type": "address"
        },
        {
          "indexed": false,
          "internalType": "uint256",
          "name": "timestamp",
          "type": "uint256"
        }
      ],
      "name": "ChangeTreasuryWallet",
      "type": "event"
    },
    {
      "anonymous": false,
      "inputs": [
        {
          "indexed": true,
          "internalType": "address",
          "name": "caller",
          "type": "address"
        },
        {
          "indexed": true,
          "internalType": "address",
          "name": "delegateAddress",
          "type": "address"
        },
        {
          "indexed": false,
          "internalType": "uint256",
          "name": "timestamp",
          "type": "uint256"
        }
      ],
      "name": "ClaimRewardsFromStakingProviderFail",
      "type": "event"
    },
    {
      "anonymous": false,
      "inputs": [
        {
          "indexed": true,
          "internalType": "address",
          "name": "caller",
          "type": "address"
        },
        {
          "indexed": true,
          "internalType": "address",
          "name": "delegateAddress",
          "type": "address"
        },
        {
          "indexed": false,
          "internalType": "uint256",
          "name": "rewardsETHAmount",
          "type": "uint256"
        },
        {
          "indexed": false,
          "internalType": "uint256",
          "name": "timestamp",
          "type": "uint256"
        }
      ],
      "name": "ClaimRewardsFromStakingProviderSuccess",
      "type": "event"
    },
    {
      "anonymous": false,
      "inputs": [
        {
          "indexed": true,
          "internalType": "address",
          "name": "caller",
          "type": "address"
        },
        {
          "indexed": true,
          "internalType": "address",
          "name": "delegateAddress",
          "type": "address"
        },
        {
          "indexed": false,
          "internalType": "uint256",
          "name": "ETHAmount",
          "type": "uint256"
        },
        {
          "indexed": false,
          "internalType": "uint256",
          "name": "timestamp",
          "type": "uint256"
        }
      ],
      "name": "DelegateToStakingProviderFail",
      "type": "event"
    },
    {
      "anonymous": false,
      "inputs": [
        {
          "indexed": true,
          "internalType": "address",
          "name": "caller",
          "type": "address"
        },
        {
          "indexed": true,
          "internalType": "address",
          "name": "delegateAddress",
          "type": "address"
        },
        {
          "indexed": false,
          "internalType": "uint256",
          "name": "ETHAmount",
          "type": "uint256"
        },
        {
          "indexed": false,
          "internalType": "uint256",
          "name": "timestamp",
          "type": "uint256"
        }
      ],
      "name": "DelegateToStakingProviderSuccess",
      "type": "event"
    },
    {
      "anonymous": false,
      "inputs": [
        {
          "indexed": true,
          "internalType": "address",
          "name": "caller",
          "type": "address"
        },
        {
          "indexed": false,
          "internalType": "uint256",
          "name": "ETHAmount",
          "type": "uint256"
        },
        {
          "indexed": false,
          "internalType": "uint256",
          "name": "timestamp",
          "type": "uint256"
        }
      ],
      "name": "Donate",
      "type": "event"
    },
    {
      "anonymous": false,
      "inputs": [
        {
          "indexed": true,
          "internalType": "address",
          "name": "previousOwner",
          "type": "address"
        },
        {
          "indexed": true,
          "internalType": "address",
          "name": "newOwner",
          "type": "address"
        }
      ],
      "name": "OwnershipTransferred",
      "type": "event"
    },
    {
      "anonymous": false,
      "inputs": [
        {
          "indexed": true,
          "internalType": "address",
          "name": "caller",
          "type": "address"
        },
        {
          "indexed": true,
          "internalType": "address",
          "name": "delegateAddress",
          "type": "address"
        },
        {
          "indexed": false,
          "internalType": "uint256",
          "name": "ETHAmount",
          "type": "uint256"
        },
        {
          "indexed": false,
          "internalType": "uint256",
          "name": "timestamp",
          "type": "uint256"
        }
      ],
      "name": "UndelegateFromStakingProviderFail",
      "type": "event"
    },
    {
      "anonymous": false,
      "inputs": [
        {
          "indexed": true,
          "internalType": "address",
          "name": "caller",
          "type": "address"
        },
        {
          "indexed": true,
          "internalType": "address",
          "name": "delegateAddress",
          "type": "address"
        },
        {
          "indexed": false,
          "internalType": "uint256",
          "name": "ETHAmount",
          "type": "uint256"
        },
        {
          "indexed": false,
          "internalType": "uint256",
          "name": "timestamp",
          "type": "uint256"
        }
      ],
      "name": "UndelegateFromStakingProviderSuccess",
      "type": "event"
    },
    {
      "anonymous": false,
      "inputs": [
        {
          "indexed": true,
          "internalType": "address",
          "name": "caller",
          "type": "address"
        },
        {
          "indexed": false,
          "internalType": "uint256",
          "name": "ETHAmount",
          "type": "uint256"
        },
        {
          "indexed": false,
          "internalType": "uint256",
          "name": "VETHAmount",
          "type": "uint256"
        },
        {
          "indexed": false,
          "internalType": "uint256",
          "name": "timestamp",
          "type": "uint256"
        }
      ],
      "name": "UserStake",
      "type": "event"
    },
    {
      "anonymous": false,
      "inputs": [
        {
          "indexed": true,
          "internalType": "address",
          "name": "caller",
          "type": "address"
        },
        {
          "indexed": false,
          "internalType": "uint256",
          "name": "VETHAmount",
          "type": "uint256"
        },
        {
          "indexed": false,
          "internalType": "uint256",
          "name": "ETHAmount",
          "type": "uint256"
        },
        {
          "indexed": false,
          "internalType": "uint256",
          "name": "timestamp",
          "type": "uint256"
        }
      ],
      "name": "UserUnstake",
      "type": "event"
    },
    {
      "anonymous": false,
      "inputs": [
        {
          "indexed": true,
          "internalType": "address",
          "name": "caller",
          "type": "address"
        },
        {
          "indexed": false,
          "internalType": "uint256",
          "name": "ETHAmount",
          "type": "uint256"
        },
        {
          "indexed": false,
          "internalType": "uint256",
          "name": "timestamp",
          "type": "uint256"
        }
      ],
      "name": "UserWithdraw",
      "type": "event"
    },
    {
      "anonymous": false,
      "inputs": [
        {
          "indexed": true,
          "internalType": "address",
          "name": "caller",
          "type": "address"
        },
        {
          "indexed": false,
          "internalType": "uint256",
          "name": "ETHAmount",
          "type": "uint256"
        },
        {
          "indexed": false,
          "internalType": "uint256",
          "name": "timestamp",
          "type": "uint256"
        }
      ],
      "name": "WithdrawFromPrestaked",
      "type": "event"
    },
    {
      "anonymous": false,
      "inputs": [
        {
          "indexed": true,
          "internalType": "address",
          "name": "caller",
          "type": "address"
        },
        {
          "indexed": true,
          "internalType": "address",
          "name": "delegateAddress",
          "type": "address"
        },
        {
          "indexed": false,
          "internalType": "uint256",
          "name": "timestamp",
          "type": "uint256"
        }
      ],
      "name": "WithdrawFromStakingProviderFail",
      "type": "event"
    },
    {
      "anonymous": false,
      "inputs": [
        {
          "indexed": true,
          "internalType": "address",
          "name": "caller",
          "type": "address"
        },
        {
          "indexed": true,
          "internalType": "address",
          "name": "delegateAddress",
          "type": "address"
        },
        {
          "indexed": false,
          "internalType": "uint256",
          "name": "ETHAmount",
          "type": "uint256"
        },
        {
          "indexed": false,
          "internalType": "uint256",
          "name": "timestamp",
          "type": "uint256"
        }
      ],
      "name": "WithdrawFromStakingProviderSuccess",
      "type": "event"
    },
    {
      "inputs": [
        {
          "internalType": "address[]",
          "name": "_addresses",
          "type": "address[]"
        }
      ],
      "name": "addAdmins",
      "outputs": [],
      "stateMutability": "nonpayable",
      "type": "function"
    },
    {
      "inputs": [
        {
          "internalType": "address[]",
          "name": "_addresses",
          "type": "address[]"
        }
      ],
      "name": "addWhitelistedSpAddresses",
      "outputs": [],
      "stateMutability": "nonpayable",
      "type": "function"
    },
    {
      "inputs": [
        {
          "internalType": "uint256",
          "name": "",
          "type": "uint256"
        }
      ],
      "name": "adminList",
      "outputs": [
        {
          "internalType": "address",
          "name": "",
          "type": "address"
        }
      ],
      "stateMutability": "view",
      "type": "function"
    },
    {
      "inputs": [
        {
          "internalType": "address",
          "name": "",
          "type": "address"
        }
      ],
      "name": "admins",
      "outputs": [
        {
          "internalType": "bool",
          "name": "",
          "type": "bool"
        }
      ],
      "stateMutability": "view",
      "type": "function"
    },
    {
      "inputs": [],
      "name": "autoDelegateAddress",
      "outputs": [
        {
          "internalType": "address",
          "name": "",
          "type": "address"
        }
      ],
      "stateMutability": "view",
      "type": "function"
    },
    {
      "inputs": [],
      "name": "autoUndelegateAddress",
      "outputs": [
        {
          "internalType": "address",
          "name": "",
          "type": "address"
        }
      ],
      "stateMutability": "view",
      "type": "function"
    },
    {
      "inputs": [
        {
          "internalType": "address",
          "name": "delegateAddress",
          "type": "address"
        }
      ],
      "name": "claimRewardsFromStakingProvider",
      "outputs": [],
      "stateMutability": "payable",
      "type": "function"
    },
    {
      "inputs": [
        {
          "internalType": "address",
          "name": "delegateAddress",
          "type": "address"
        },
        {
          "internalType": "uint256",
          "name": "amount",
          "type": "uint256"
        }
      ],
      "name": "delegateToStakingProvider",
      "outputs": [],
      "stateMutability": "payable",
      "type": "function"
    },
    {
      "inputs": [],
      "name": "donate",
      "outputs": [],
      "stateMutability": "payable",
      "type": "function"
    },
    {
      "inputs": [],
      "name": "fee",
      "outputs": [
        {
          "internalType": "uint256",
          "name": "",
          "type": "uint256"
        }
      ],
      "stateMutability": "view",
      "type": "function"
    },
    {
      "inputs": [],
      "name": "getETHPrice",
      "outputs": [
        {
          "internalType": "uint256",
          "name": "",
          "type": "uint256"
        }
      ],
      "stateMutability": "view",
      "type": "function"
    },
    {
      "inputs": [],
      "name": "getVETHPrice",
      "outputs": [
        {
          "internalType": "uint256",
          "name": "",
          "type": "uint256"
        }
      ],
      "stateMutability": "view",
      "type": "function"
    },
    {
      "inputs": [],
      "name": "managementActionAllowed",
      "outputs": [
        {
          "internalType": "bool",
          "name": "",
          "type": "bool"
        }
      ],
      "stateMutability": "view",
      "type": "function"
    },
    {
      "inputs": [],
      "name": "owner",
      "outputs": [
        {
          "internalType": "address",
          "name": "",
          "type": "address"
        }
      ],
      "stateMutability": "view",
      "type": "function"
    },
    {
      "inputs": [],
      "name": "pendingRewardETHAmount",
      "outputs": [
        {
          "internalType": "uint256",
          "name": "",
          "type": "uint256"
        }
      ],
      "stateMutability": "view",
      "type": "function"
    },
    {
      "inputs": [],
      "name": "poolETHAmount",
      "outputs": [
        {
          "internalType": "uint256",
          "name": "",
          "type": "uint256"
        }
      ],
      "stateMutability": "view",
      "type": "function"
    },
    {
      "inputs": [],
      "name": "poolVETHAmount",
      "outputs": [
        {
          "internalType": "uint256",
          "name": "",
          "type": "uint256"
        }
      ],
      "stateMutability": "view",
      "type": "function"
    },
    {
      "inputs": [],
      "name": "prestakePendingRewards",
      "outputs": [],
      "stateMutability": "payable",
      "type": "function"
    },
    {
      "inputs": [],
      "name": "prestakedETHAmount",
      "outputs": [
        {
          "internalType": "uint256",
          "name": "",
          "type": "uint256"
        }
      ],
      "stateMutability": "view",
      "type": "function"
    },
    {
      "inputs": [],
      "name": "preunstakedETHAmount",
      "outputs": [
        {
          "internalType": "uint256",
          "name": "",
          "type": "uint256"
        }
      ],
      "stateMutability": "view",
      "type": "function"
    },
    {
      "inputs": [
        {
          "internalType": "uint256",
          "name": "VETHAmount",
          "type": "uint256"
        }
      ],
      "name": "quoteETH",
      "outputs": [
        {
          "internalType": "uint256",
          "name": "",
          "type": "uint256"
        }
      ],
      "stateMutability": "view",
      "type": "function"
    },
    {
      "inputs": [
        {
          "internalType": "uint256",
          "name": "ETHAmount",
          "type": "uint256"
        }
      ],
      "name": "quoteVETH",
      "outputs": [
        {
          "internalType": "uint256",
          "name": "",
          "type": "uint256"
        }
      ],
      "stateMutability": "view",
      "type": "function"
    },
    {
      "inputs": [
        {
          "internalType": "uint256",
          "name": "",
          "type": "uint256"
        }
      ],
      "name": "recentPreunstakedETHAmountsMap",
      "outputs": [
        {
          "internalType": "uint256",
          "name": "",
          "type": "uint256"
        }
      ],
      "stateMutability": "view",
      "type": "function"
    },
    {
      "inputs": [
        {
          "internalType": "uint256",
          "name": "",
          "type": "uint256"
        }
      ],
      "name": "recentPreunstakedETHAmountsMapKeys",
      "outputs": [
        {
          "internalType": "uint256",
          "name": "",
          "type": "uint256"
        }
      ],
      "stateMutability": "view",
      "type": "function"
    },
    {
      "inputs": [
        {
          "internalType": "address[]",
          "name": "_addresses",
          "type": "address[]"
        }
      ],
      "name": "removeAdmins",
      "outputs": [],
      "stateMutability": "nonpayable",
      "type": "function"
    },
    {
      "inputs": [],
      "name": "removeAutoDelegateAddress",
      "outputs": [],
      "stateMutability": "nonpayable",
      "type": "function"
    },
    {
      "inputs": [],
      "name": "removeAutoUndelegateAddress",
      "outputs": [],
      "stateMutability": "nonpayable",
      "type": "function"
    },
    {
      "inputs": [
        {
          "internalType": "address[]",
          "name": "_addresses",
          "type": "address[]"
        }
      ],
      "name": "removeWhitelistedSpAddresses",
      "outputs": [],
      "stateMutability": "nonpayable",
      "type": "function"
    },
    {
      "inputs": [],
      "name": "renounceOwnership",
      "outputs": [],
      "stateMutability": "nonpayable",
      "type": "function"
    },
    {
      "inputs": [
        {
          "internalType": "address",
          "name": "_autoDelegateAddress",
          "type": "address"
        }
      ],
      "name": "setAutoDelegateAddress",
      "outputs": [],
      "stateMutability": "nonpayable",
      "type": "function"
    },
    {
      "inputs": [
        {
          "internalType": "address",
          "name": "_autoUndelegateAddress",
          "type": "address"
        }
      ],
      "name": "setAutoUndelegateAddress",
      "outputs": [],
      "stateMutability": "nonpayable",
      "type": "function"
    },
    {
      "inputs": [
        {
          "internalType": "uint256",
          "name": "_fee",
          "type": "uint256"
        }
      ],
      "name": "setFee",
      "outputs": [],
      "stateMutability": "nonpayable",
      "type": "function"
    },
    {
      "inputs": [
        {
          "internalType": "bool",
          "name": "_managementActionAllowed",
          "type": "bool"
        }
      ],
      "name": "setManagementActionAllowed",
      "outputs": [],
      "stateMutability": "nonpayable",
      "type": "function"
    },
    {
      "inputs": [
        {
          "internalType": "uint256",
          "name": "_unbondingPeriod",
          "type": "uint256"
        },
        {
          "internalType": "address",
          "name": "_treasuryWallet",
          "type": "address"
        },
        {
          "internalType": "uint256",
          "name": "_fee",
          "type": "uint256"
        },
        {
          "internalType": "bool",
          "name": "_userActionAllowed",
          "type": "bool"
        },
        {
          "internalType": "bool",
          "name": "_managementActionAllowed",
          "type": "bool"
        }
      ],
      "name": "setSettings",
      "outputs": [],
      "stateMutability": "nonpayable",
      "type": "function"
    },
    {
      "inputs": [
        {
          "internalType": "address",
          "name": "_treasuryWallet",
          "type": "address"
        }
      ],
      "name": "setTreasuryWallet",
      "outputs": [],
      "stateMutability": "nonpayable",
      "type": "function"
    },
    {
      "inputs": [
        {
          "internalType": "uint256",
          "name": "_unbondingPeriod",
          "type": "uint256"
        }
      ],
      "name": "setUnbondingPeriod",
      "outputs": [],
      "stateMutability": "nonpayable",
      "type": "function"
    },
    {
      "inputs": [
        {
          "internalType": "bool",
          "name": "_userActionAllowed",
          "type": "bool"
        }
      ],
      "name": "setUserActionAllowed",
      "outputs": [],
      "stateMutability": "nonpayable",
      "type": "function"
    },
    {
      "inputs": [],
      "name": "totalOldPreunstakedETHAmount",
      "outputs": [
        {
          "internalType": "uint256",
          "name": "",
          "type": "uint256"
        }
      ],
      "stateMutability": "view",
      "type": "function"
    },
    {
      "inputs": [],
      "name": "totalUndelegatedETHAmount",
      "outputs": [
        {
          "internalType": "uint256",
          "name": "",
          "type": "uint256"
        }
      ],
      "stateMutability": "view",
      "type": "function"
    },
    {
      "inputs": [
        {
          "internalType": "address",
          "name": "newOwner",
          "type": "address"
        }
      ],
      "name": "transferOwnership",
      "outputs": [],
      "stateMutability": "nonpayable",
      "type": "function"
    },
    {
      "inputs": [],
      "name": "treasuryWallet",
      "outputs": [
        {
          "internalType": "address",
          "name": "",
          "type": "address"
        }
      ],
      "stateMutability": "view",
      "type": "function"
    },
    {
      "inputs": [],
      "name": "unbondedETHAmount",
      "outputs": [
        {
          "internalType": "uint256",
          "name": "",
          "type": "uint256"
        }
      ],
      "stateMutability": "view",
      "type": "function"
    },
    {
      "inputs": [],
      "name": "unbondingPeriod",
      "outputs": [
        {
          "internalType": "uint256",
          "name": "",
          "type": "uint256"
        }
      ],
      "stateMutability": "view",
      "type": "function"
    },
    {
      "inputs": [
        {
          "internalType": "address",
          "name": "undelegateAddress",
          "type": "address"
        },
        {
          "internalType": "uint256",
          "name": "amount",
          "type": "uint256"
        }
      ],
      "name": "undelegateToStakingProvider",
      "outputs": [],
      "stateMutability": "nonpayable",
      "type": "function"
    },
    {
      "inputs": [
        {
          "internalType": "address",
          "name": "",
          "type": "address"
        },
        {
          "internalType": "uint256",
          "name": "",
          "type": "uint256"
        }
      ],
      "name": "unstakingPacks",
      "outputs": [
        {
          "internalType": "uint256",
          "name": "amount",
          "type": "uint256"
        },
        {
          "internalType": "uint256",
          "name": "timestamp",
          "type": "uint256"
        }
      ],
      "stateMutability": "view",
      "type": "function"
    },
    {
      "inputs": [
        {
          "internalType": "address",
          "name": "",
          "type": "address"
        }
      ],
      "name": "unstakingUsers",
      "outputs": [
        {
          "internalType": "bool",
          "name": "",
          "type": "bool"
        }
      ],
      "stateMutability": "view",
      "type": "function"
    },
    {
      "inputs": [
        {
          "internalType": "uint256",
          "name": "",
          "type": "uint256"
        }
      ],
      "name": "unstakingUsersList",
      "outputs": [
        {
          "internalType": "address",
          "name": "",
          "type": "address"
        }
      ],
      "stateMutability": "view",
      "type": "function"
    },
    {
      "inputs": [],
      "name": "userActionAllowed",
      "outputs": [
        {
          "internalType": "bool",
          "name": "",
          "type": "bool"
        }
      ],
      "stateMutability": "view",
      "type": "function"
    },
    {
      "inputs": [],
      "name": "userStake",
      "outputs": [],
      "stateMutability": "payable",
      "type": "function"
    },
    {
      "inputs": [
        {
          "internalType": "uint256",
          "name": "VETHAmount",
          "type": "uint256"
        }
      ],
      "name": "userUnstake",
      "outputs": [],
      "stateMutability": "nonpayable",
      "type": "function"
    },
    {
      "inputs": [],
      "name": "userWithdraw",
      "outputs": [],
      "stateMutability": "nonpayable",
      "type": "function"
    },
    {
      "inputs": [],
      "name": "viewLiquidStakingSettings",
      "outputs": [
        {
          "components": [
            {
              "internalType": "address",
              "name": "VETH_identifier",
              "type": "address"
            },
            {
              "internalType": "address",
              "name": "treasuryWallet",
              "type": "address"
            },
            {
              "internalType": "uint256",
              "name": "fee",
              "type": "uint256"
            },
            {
              "internalType": "uint256",
              "name": "unbondingPeriod",
              "type": "uint256"
            },
            {
              "internalType": "address[]",
              "name": "admins",
              "type": "address[]"
            },
            {
              "internalType": "bool",
              "name": "userActionAllowed",
              "type": "bool"
            },
            {
              "internalType": "bool",
              "name": "managementActionAllowed",
              "type": "bool"
            },
            {
              "internalType": "address",
              "name": "autoDelegateAddress",
              "type": "address"
            },
            {
              "internalType": "address",
              "name": "autoUndelegateAddress",
              "type": "address"
            },
            {
              "internalType": "uint256",
              "name": "poolVETHAmount",
              "type": "uint256"
            },
            {
              "internalType": "uint256",
              "name": "poolETHAmount",
              "type": "uint256"
            },
            {
              "internalType": "uint256",
              "name": "prestakedETHAmount",
              "type": "uint256"
            },
            {
              "internalType": "uint256",
              "name": "preunstakedETHAmount",
              "type": "uint256"
            },
            {
              "internalType": "uint256",
              "name": "unbondedETHAmount",
              "type": "uint256"
            },
            {
              "internalType": "uint256",
              "name": "pendingRewardETHAmount",
              "type": "uint256"
            },
            {
              "internalType": "uint256",
              "name": "VETHPrice",
              "type": "uint256"
            }
          ],
          "internalType": "struct LiquidStaking.LiquidStakingSettings",
          "name": "",
          "type": "tuple"
        }
      ],
      "stateMutability": "view",
      "type": "function"
    },
    {
      "inputs": [],
      "name": "viewUserUnstakingPacks",
      "outputs": [
        {
          "components": [
            {
              "internalType": "address",
              "name": "userAddress",
              "type": "address"
            },
            {
              "components": [
                {
                  "internalType": "uint256",
                  "name": "amount",
                  "type": "uint256"
                },
                {
                  "internalType": "uint256",
                  "name": "timestamp",
                  "type": "uint256"
                }
              ],
              "internalType": "struct LiquidStaking.UnstakingPack[]",
              "name": "packs",
              "type": "tuple[]"
            }
          ],
          "internalType": "struct LiquidStaking.UserUnstakingPacks[]",
          "name": "",
          "type": "tuple[]"
        }
      ],
      "stateMutability": "view",
      "type": "function"
    },
    {
      "inputs": [
        {
          "internalType": "address",
          "name": "",
          "type": "address"
        }
      ],
      "name": "whitelistedSpAddresses",
      "outputs": [
        {
          "internalType": "bool",
          "name": "",
          "type": "bool"
        }
      ],
      "stateMutability": "view",
      "type": "function"
    },
    {
      "inputs": [],
      "name": "withdrawFromPrestaked",
      "outputs": [],
      "stateMutability": "nonpayable",
      "type": "function"
    },
    {
      "inputs": [
        {
          "internalType": "address",
          "name": "delegateAddress",
          "type": "address"
        }
      ],
      "name": "withdrawFromStakingProvider",
      "outputs": [],
      "stateMutability": "payable",
      "type": "function"
    },
    {
      "stateMutability": "payable",
      "type": "receive"
    }
  ],
  "bytecode": "0x608060405234801561001057600080fd5b5033600073ffffffffffffffffffffffffffffffffffffffff168173ffffffffffffffffffffffffffffffffffffffff16036100845760006040517f1e4fbdf700000000000000000000000000000000000000000000000000000000815260040161007b9190610292565b60405180910390fd5b6100938161018060201b60201c565b50600180819055506040518060400160405280600f81526020017f5665737461585374616b656445544800000000000000000000000000000000008152506040518060400160405280600481526020017f564554480000000000000000000000000000000000000000000000000000000081525060405161011390610244565b61011e92919061033d565b604051809103906000f08015801561013a573d6000803e3d6000fd5b50600260006101000a81548173ffffffffffffffffffffffffffffffffffffffff021916908373ffffffffffffffffffffffffffffffffffffffff160217905550610374565b60008060009054906101000a900473ffffffffffffffffffffffffffffffffffffffff169050816000806101000a81548173ffffffffffffffffffffffffffffffffffffffff021916908373ffffffffffffffffffffffffffffffffffffffff1602179055508173ffffffffffffffffffffffffffffffffffffffff168173ffffffffffffffffffffffffffffffffffffffff167f8be0079c531659141344cd1fd0a4f28419497f9722a3daafe3b4186f6b6457e060405160405180910390a35050565b61195a8061613383390190565b600073ffffffffffffffffffffffffffffffffffffffff82169050919050565b600061027c82610251565b9050919050565b61028c81610271565b82525050565b60006020820190506102a76000830184610283565b92915050565b600081519050919050565b600082825260208201905092915050565b60005b838110156102e75780820151818401526020810190506102cc565b60008484015250505050565b6000601f19601f8301169050919050565b600061030f826102ad565b61031981856102b8565b93506103298185602086016102c9565b610332816102f3565b840191505092915050565b600060408201905081810360008301526103578185610304565b9050818103602083015261036b8184610304565b90509392505050565b615db0806103836000396000f3fe60806040526004361061036f5760003560e01c80639b162b09116101c6578063d52ae65c116100f7578063e8f632e411610095578063f2fde38b1161006f578063f2fde38b14610bde578063f8f86d1114610c07578063f9b6801a14610c30578063fe41376614610c5b57610376565b8063e8f632e414610b9f578063ed88c68e14610bca578063f03817d914610bd457610376565b8063ddca3f43116100d1578063ddca3f4314610ae3578063de27194a14610b0e578063e136016714610b37578063e79dfb0214610b6257610376565b8063d52ae65c14610a64578063d75261a614610a8d578063d9b7dbc914610ab857610376565b8063a8602fea11610164578063ba4a01651161013e578063ba4a0165146109ce578063ca04ca63146109f9578063d22ab23b14610a10578063d45c694014610a3b57610376565b8063a8602fea1461093d578063b012f99214610966578063b6f5ae54146109a357610376565b8063a44c4e65116101a0578063a44c4e6514610881578063a607a8d9146108be578063a646f9ad146108e9578063a82332471461090057610376565b80639b162b09146107f25780639c54df641461081b5780639f3effae1461084457610376565b80635aa26812116102a05780636e2d6eee1161023e5780638676ba9c116102185780638676ba9c146107365780638c282304146107615780638da5cb5b1461078a5780639a7dee5d146107b557610376565b80636e2d6eee146106dd578063715018a6146107085780638263f83c1461071f57610376565b806364e55b6c1161027a57806364e55b6c1461063557806368bf95961461066057806369fe0e2d146106895780636cf6d675146106b257610376565b80635aa26812146105c05780635cfd8deb146105dc5780635f4a96dc146105f857610376565b8063377e11e01161030d5780634626402b116102e75780634626402b1461050157806347e0a8a11461052c5780634f4a9d211461056a57806353f522bd1461059557610376565b8063377e11e0146104845780633e94e4d7146104ad578063429b62e5146104c457610376565b806311117fc81161034957806311117fc8146103d7578063114eaf551461041457806319c360e51461043d57806325f291171461045957610376565b806301246bf11461037b5780630e800d04146103a45780631056c07b146103cd57610376565b3661037657005b600080fd5b34801561038757600080fd5b506103a2600480360381019061039d919061453c565b610c86565b005b3480156103b057600080fd5b506103cb60048036038101906103c691906145e1565b610e4e565b005b6103d5610eec565b005b3480156103e357600080fd5b506103fe60048036038101906103f9919061462e565b6110fa565b60405161040b919061466a565b60405180910390f35b34801561042057600080fd5b5061043b6004803603810190610436919061462e565b611139565b005b61045760048036038101906104529190614685565b6111a0565b005b34801561046557600080fd5b5061046e6113f3565b60405161047b91906146c1565b60405180910390f35b34801561049057600080fd5b506104ab60048036038101906104a691906145e1565b6113f9565b005b3480156104b957600080fd5b506104c2611645565b005b3480156104d057600080fd5b506104eb60048036038101906104e69190614685565b611806565b6040516104f891906146f7565b60405180910390f35b34801561050d57600080fd5b50610516611826565b604051610523919061466a565b60405180910390f35b34801561053857600080fd5b50610553600480360381019061054e919061453c565b61184c565b604051610561929190614712565b60405180910390f35b34801561057657600080fd5b5061057f61188d565b60405161058c91906146c1565b60405180910390f35b3480156105a157600080fd5b506105aa611893565b6040516105b791906146c1565b60405180910390f35b6105da60048036038101906105d5919061453c565b611899565b005b6105f660048036038101906105f19190614685565b611a5b565b005b34801561060457600080fd5b5061061f600480360381019061061a919061462e565b611cf6565b60405161062c91906146c1565b60405180910390f35b34801561064157600080fd5b5061064a611d6c565b60405161065791906146f7565b60405180910390f35b34801561066c57600080fd5b5061068760048036038101906106829190614767565b611d7f565b005b34801561069557600080fd5b506106b060048036038101906106ab919061462e565b611de4565b005b3480156106be57600080fd5b506106c7611e8b565b6040516106d491906146c1565b60405180910390f35b3480156106e957600080fd5b506106f2611e91565b6040516106ff91906146f7565b60405180910390f35b34801561071457600080fd5b5061071d611ea4565b005b34801561072b57600080fd5b50610734611eb8565b005b34801561074257600080fd5b5061074b611f44565b60405161075891906149c8565b60405180910390f35b34801561076d57600080fd5b506107886004803603810190610783919061462e565b61216c565b005b34801561079657600080fd5b5061079f61254b565b6040516107ac919061466a565b60405180910390f35b3480156107c157600080fd5b506107dc60048036038101906107d7919061462e565b612574565b6040516107e9919061466a565b60405180910390f35b3480156107fe57600080fd5b5061081960048036038101906108149190614685565b6125b3565b005b34801561082757600080fd5b50610842600480360381019061083d91906145e1565b6126cb565b005b34801561085057600080fd5b5061086b60048036038101906108669190614685565b6127fc565b60405161087891906146f7565b60405180910390f35b34801561088d57600080fd5b506108a860048036038101906108a3919061462e565b61281c565b6040516108b591906146c1565b60405180910390f35b3480156108ca57600080fd5b506108d3612892565b6040516108e091906146c1565b60405180910390f35b3480156108f557600080fd5b506108fe6128aa565b005b34801561090c57600080fd5b506109276004803603810190610922919061462e565b612d67565b60405161093491906146c1565b60405180910390f35b34801561094957600080fd5b50610964600480360381019061095f9190614685565b612d7f565b005b34801561097257600080fd5b5061098d6004803603810190610988919061462e565b612e9f565b60405161099a91906146c1565b60405180910390f35b3480156109af57600080fd5b506109b8612ec3565b6040516109c5919061466a565b60405180910390f35b3480156109da57600080fd5b506109e3612ee9565b6040516109f0919061466a565b60405180910390f35b348015610a0557600080fd5b50610a0e612f0f565b005b348015610a1c57600080fd5b50610a25612f9b565b604051610a3291906146c1565b60405180910390f35b348015610a4757600080fd5b50610a626004803603810190610a5d9190614685565b612fa1565b005b348015610a7057600080fd5b50610a8b6004803603810190610a8691906145e1565b61302d565b005b348015610a9957600080fd5b50610aa2613143565b604051610aaf91906146c1565b60405180910390f35b348015610ac457600080fd5b50610acd613149565b604051610ada91906146c1565b60405180910390f35b348015610aef57600080fd5b50610af861314f565b604051610b0591906146c1565b60405180910390f35b348015610b1a57600080fd5b50610b356004803603810190610b3091906149ea565b613155565b005b348015610b4357600080fd5b50610b4c613191565b604051610b599190614c42565b60405180910390f35b348015610b6e57600080fd5b50610b896004803603810190610b849190614685565b613350565b604051610b9691906146f7565b60405180910390f35b348015610bab57600080fd5b50610bb4613370565b604051610bc191906146c1565b60405180910390f35b610bd2613376565b005b610bdc6134a6565b005b348015610bea57600080fd5b50610c056004803603810190610c009190614685565b6137d1565b005b348015610c1357600080fd5b50610c2e6004803603810190610c299190614767565b613857565b005b348015610c3c57600080fd5b50610c456138bc565b604051610c5291906146c1565b60405180910390f35b348015610c6757600080fd5b50610c706138d4565b604051610c7d91906146c1565b60405180910390f35b600860019054906101000a900460ff16610cd5576040517f08c379a0000000000000000000000000000000000000000000000000000000008152600401610ccc90614ce7565b60405180910390fd5b610cdd6138da565b610ce633613a7e565b80610cf45750601654601554105b610d33576040517f08c379a0000000000000000000000000000000000000000000000000000000008152600401610d2a90614d53565b60405180910390fd5b600073ffffffffffffffffffffffffffffffffffffffff168273ffffffffffffffffffffffffffffffffffffffff1603610e1e57600073ffffffffffffffffffffffffffffffffffffffff16600b60009054906101000a900473ffffffffffffffffffffffffffffffffffffffff1673ffffffffffffffffffffffffffffffffffffffff1603610df8576040517f08c379a0000000000000000000000000000000000000000000000000000000008152600401610def90614dbf565b60405180910390fd5b600b60009054906101000a900473ffffffffffffffffffffffffffffffffffffffff1691505b6000811115610e3a57610e3381601054613b11565b9050610e40565b60105490505b610e4a8282613b2a565b5050565b610e56613da6565b60005b82829050811015610ee75760096000848484818110610e7b57610e7a614ddf565b5b9050602002016020810190610e909190614685565b73ffffffffffffffffffffffffffffffffffffffff1673ffffffffffffffffffffffffffffffffffffffff16815260200190815260200160002060006101000a81549060ff02191690558080600101915050610e59565b505050565b610ef4613e2d565b600860019054906101000a900460ff16610f43576040517f08c379a0000000000000000000000000000000000000000000000000000000008152600401610f3a90614ce7565b60405180910390fd5b6000600f5490506000600f81905550600081116040518060400160405280600b81526020017f5a65726f20616d6f756e7400000000000000000000000000000000000000000081525090610fcd576040517f08c379a0000000000000000000000000000000000000000000000000000000008152600401610fc49190614e8d565b60405180910390fd5b506000610ff9612710610feb60045485613e7c90919063ffffffff16565b613e9290919063ffffffff16565b905060006110108284613ea890919063ffffffff16565b9050600082146110b7576000600360009054906101000a900473ffffffffffffffffffffffffffffffffffffffff1673ffffffffffffffffffffffffffffffffffffffff166108fc849081150290604051600060405180830381858888f193505050509050806110b5576040517f08c379a00000000000000000000000000000000000000000000000000000000081526004016110ac90614efb565b60405180910390fd5b505b6110cc81600e54613ebe90919063ffffffff16565b600e819055506110e781600c54613ebe90919063ffffffff16565b600c819055505050506110f8613ed4565b565b6007818154811061110a57600080fd5b906000526020600020016000915054906101000a900473ffffffffffffffffffffffffffffffffffffffff1681565b611141613da6565b620d2f008110158015611157575062278d008111155b611196576040517f08c379a000000000000000000000000000000000000000000000000000000000815260040161118d90614f8d565b60405180910390fd5b8060058190555050565b6111a8613e2d565b600860019054906101000a900460ff166111f7576040517f08c379a00000000000000000000000000000000000000000000000000000000081526004016111ee90614ce7565b60405180910390fd5b61120081613edd565b61123f576040517f08c379a00000000000000000000000000000000000000000000000000000000081526004016112369061501f565b60405180910390fd5b60008173ffffffffffffffffffffffffffffffffffffffff16633ccfd60b6040518163ffffffff1660e01b81526004016020604051808303816000875af115801561128e573d6000803e3d6000fd5b505050506040513d601f19601f820116820180604052508101906112b29190615054565b905080156113475760003490506112d481601454613ebe90919063ffffffff16565b6014819055508273ffffffffffffffffffffffffffffffffffffffff163373ffffffffffffffffffffffffffffffffffffffff167fe90332f0f8ae0bc2bf604f4bc0cfc17153067d4129194c38afb59e46f0b465dc8342604051611339929190614712565b60405180910390a3506113e7565b8173ffffffffffffffffffffffffffffffffffffffff163373ffffffffffffffffffffffffffffffffffffffff167ff6925401cb3831e6b1617082fd51bad708ca3b7e7405e067a22c4c6c171cb0a7426040516113a491906146c1565b60405180910390a36040517f08c379a00000000000000000000000000000000000000000000000000000000081526004016113de90614efb565b60405180910390fd5b506113f0613ed4565b50565b600f5481565b611401613da6565b60005b82829050811015611640576006600084848481811061142657611425614ddf565b5b905060200201602081019061143b9190614685565b73ffffffffffffffffffffffffffffffffffffffff1673ffffffffffffffffffffffffffffffffffffffff16815260200190815260200160002060006101000a81549060ff021916905560005b600780549050811015611632578383838181106114a8576114a7614ddf565b5b90506020020160208101906114bd9190614685565b73ffffffffffffffffffffffffffffffffffffffff16600782815481106114e7576114e6614ddf565b5b9060005260206000200160009054906101000a900473ffffffffffffffffffffffffffffffffffffffff1673ffffffffffffffffffffffffffffffffffffffff1603611625576007600160078054905061154191906150b0565b8154811061155257611551614ddf565b5b9060005260206000200160009054906101000a900473ffffffffffffffffffffffffffffffffffffffff166007828154811061159157611590614ddf565b5b9060005260206000200160006101000a81548173ffffffffffffffffffffffffffffffffffffffff021916908373ffffffffffffffffffffffffffffffffffffffff16021790555060078054806115eb576115ea6150e4565b5b6001900381819060005260206000200160006101000a81549073ffffffffffffffffffffffffffffffffffffffff02191690559055611632565b8080600101915050611488565b508080600101915050611404565b505050565b600860019054906101000a900460ff16611694576040517f08c379a000000000000000000000000000000000000000000000000000000000815260040161168b90614ce7565b60405180910390fd5b61169c6138da565b6116a533613a7e565b806116b35750601654601554105b6116f2576040517f08c379a00000000000000000000000000000000000000000000000000000000081526004016116e990614d53565b60405180910390fd5b6000611702600e54601054613b11565b905060008111611747576040517f08c379a000000000000000000000000000000000000000000000000000000000815260040161173e9061515f565b60405180910390fd5b61175c81600e54613ea890919063ffffffff16565b600e8190555061177781601054613ea890919063ffffffff16565b60108190555061179281601454613ebe90919063ffffffff16565b6014819055506117ad81601554613ebe90919063ffffffff16565b6015819055503373ffffffffffffffffffffffffffffffffffffffff167fcf68f9d468fecd22eae1e7c392cb2156fdfd60fd42d3055c60636daf5754685382426040516117fb929190614712565b60405180910390a250565b60066020528060005260406000206000915054906101000a900460ff1681565b600360009054906101000a900473ffffffffffffffffffffffffffffffffffffffff1681565b6011602052816000526040600020818154811061186857600080fd5b9060005260206000209060020201600091509150508060000154908060010154905082565b600c5481565b60105481565b6118a1613e2d565b6118aa33613a7e565b6118e9576040517f08c379a00000000000000000000000000000000000000000000000000000000081526004016118e0906151cb565b60405180910390fd5b600860019054906101000a900460ff16611938576040517f08c379a000000000000000000000000000000000000000000000000000000000815260040161192f90614ce7565b60405180910390fd5b600073ffffffffffffffffffffffffffffffffffffffff168273ffffffffffffffffffffffffffffffffffffffff1603611a2357600073ffffffffffffffffffffffffffffffffffffffff16600a60009054906101000a900473ffffffffffffffffffffffffffffffffffffffff1673ffffffffffffffffffffffffffffffffffffffff16036119fd576040517f08c379a00000000000000000000000000000000000000000000000000000000081526004016119f490615237565b60405180910390fd5b600a60009054906101000a900473ffffffffffffffffffffffffffffffffffffffff1691505b6000811115611a3f57611a3881600e54613b11565b9050611a45565b600e5490505b611a4f8282613ef0565b611a57613ed4565b5050565b611a63613e2d565b611a6c33613a7e565b611aab576040517f08c379a0000000000000000000000000000000000000000000000000000000008152600401611aa2906151cb565b60405180910390fd5b600860019054906101000a900460ff16611afa576040517f08c379a0000000000000000000000000000000000000000000000000000000008152600401611af190614ce7565b60405180910390fd5b611b0381613edd565b611b42576040517f08c379a0000000000000000000000000000000000000000000000000000000008152600401611b399061501f565b60405180910390fd5b60008173ffffffffffffffffffffffffffffffffffffffff1663372500ab6040518163ffffffff1660e01b81526004016020604051808303816000875af1158015611b91573d6000803e3d6000fd5b505050506040513d601f19601f82011682018060405250810190611bb59190615054565b90508015611c4a576000349050611bd781600f54613ebe90919063ffffffff16565b600f819055508273ffffffffffffffffffffffffffffffffffffffff163373ffffffffffffffffffffffffffffffffffffffff167fcbb344545cf70680b306216bc46684679a08bd0f4e959000bde39e0206abc33d8342604051611c3c929190614712565b60405180910390a350611cea565b8173ffffffffffffffffffffffffffffffffffffffff163373ffffffffffffffffffffffffffffffffffffffff167f2b90dac66e7b90807de1f63954146db5179626e86c402f98e10b7476951fe62142604051611ca791906146c1565b60405180910390a36040517f08c379a0000000000000000000000000000000000000000000000000000000008152600401611ce190614efb565b60405180910390fd5b50611cf3613ed4565b50565b600080600c5403611d3c576040517f08c379a0000000000000000000000000000000000000000000000000000000008152600401611d33906152a3565b60405180910390fd5b611d65600c54611d5784600d54613e7c90919063ffffffff16565b613e9290919063ffffffff16565b9050919050565b600860019054906101000a900460ff1681565b611d8833613a7e565b611dc7576040517f08c379a0000000000000000000000000000000000000000000000000000000008152600401611dbe906151cb565b60405180910390fd5b80600860016101000a81548160ff02191690831515021790555050565b611dec613da6565b612710811115611e31576040517f08c379a0000000000000000000000000000000000000000000000000000000008152600401611e289061530f565b60405180910390fd5b806004819055503373ffffffffffffffffffffffffffffffffffffffff167fbd8c147319e252deb42fbeb2397f1c9861e7b6e915aa183dee1092970821fe678242604051611e80929190614712565b60405180910390a250565b60055481565b600860009054906101000a900460ff1681565b611eac613da6565b611eb660006141ce565b565b611ec133613a7e565b611f00576040517f08c379a0000000000000000000000000000000000000000000000000000000008152600401611ef7906151cb565b60405180910390fd5b6000600a60006101000a81548173ffffffffffffffffffffffffffffffffffffffff021916908373ffffffffffffffffffffffffffffffffffffffff160217905550565b611f4c614395565b604051806102000160405280600260009054906101000a900473ffffffffffffffffffffffffffffffffffffffff1673ffffffffffffffffffffffffffffffffffffffff168152602001600360009054906101000a900473ffffffffffffffffffffffffffffffffffffffff1673ffffffffffffffffffffffffffffffffffffffff16815260200160045481526020016005548152602001600780548060200260200160405190810160405280929190818152602001828054801561206657602002820191906000526020600020905b8160009054906101000a900473ffffffffffffffffffffffffffffffffffffffff1673ffffffffffffffffffffffffffffffffffffffff168152602001906001019080831161201c575b50505050508152602001600860009054906101000a900460ff1615158152602001600860019054906101000a900460ff1615158152602001600a60009054906101000a900473ffffffffffffffffffffffffffffffffffffffff1673ffffffffffffffffffffffffffffffffffffffff168152602001600b60009054906101000a900473ffffffffffffffffffffffffffffffffffffffff1673ffffffffffffffffffffffffffffffffffffffff168152602001600d548152602001600c548152602001600e54815260200160105481526020016014548152602001600f5481526020016000600d541161215b576000612164565b6121636138bc565b5b815250905090565b612174613e2d565b600860009054906101000a900460ff166121c3576040517f08c379a00000000000000000000000000000000000000000000000000000000081526004016121ba9061537b565b60405180910390fd5b80600260009054906101000a900473ffffffffffffffffffffffffffffffffffffffff1673ffffffffffffffffffffffffffffffffffffffff166370a08231336040518263ffffffff1660e01b815260040161221f919061466a565b602060405180830381865afa15801561223c573d6000803e3d6000fd5b505050506040513d601f19601f8201168201806040525081019061226091906153b0565b10156122a1576040517f08c379a000000000000000000000000000000000000000000000000000000000815260040161229890615429565b60405180910390fd5b6122a96138da565b60006122b48261281c565b90506122cb81600c54613ea890919063ffffffff16565b600c819055506122e681600d54613ea890919063ffffffff16565b600d8190555061230181601054613ebe90919063ffffffff16565b601081905550600260009054906101000a900473ffffffffffffffffffffffffffffffffffffffff1673ffffffffffffffffffffffffffffffffffffffff16639dc29fac33846040518363ffffffff1660e01b8152600401612364929190615449565b600060405180830381600087803b15801561237e57600080fd5b505af1158015612392573d6000803e3d6000fd5b5050505061239f81614292565b6001601260003373ffffffffffffffffffffffffffffffffffffffff1673ffffffffffffffffffffffffffffffffffffffff16815260200190815260200160002060006101000a81548160ff021916908315150217905550601160003373ffffffffffffffffffffffffffffffffffffffff1673ffffffffffffffffffffffffffffffffffffffff1681526020019081526020016000206040518060400160405280838152602001428152509080600181540180825580915050600190039060005260206000209060020201600090919091909150600082015181600001556020820151816001015550506013339080600181540180825580915050600190039060005260206000200160009091909190916101000a81548173ffffffffffffffffffffffffffffffffffffffff021916908373ffffffffffffffffffffffffffffffffffffffff1602179055503373ffffffffffffffffffffffffffffffffffffffff167fa6ce945100f5b1b54d2fcef92eeb45b8106926da0eea9f068f48b9f1c8a0066c83834260405161253793929190615472565b60405180910390a250612548613ed4565b50565b60008060009054906101000a900473ffffffffffffffffffffffffffffffffffffffff16905090565b6013818154811061258457600080fd5b906000526020600020016000915054906101000a900473ffffffffffffffffffffffffffffffffffffffff1681565b6125bc33613a7e565b6125fb576040517f08c379a00000000000000000000000000000000000000000000000000000000081526004016125f2906151cb565b60405180910390fd5b600960008273ffffffffffffffffffffffffffffffffffffffff1673ffffffffffffffffffffffffffffffffffffffff16815260200190815260200160002060009054906101000a900460ff16612687576040517f08c379a000000000000000000000000000000000000000000000000000000000815260040161267e9061551b565b60405180910390fd5b80600a60006101000a81548173ffffffffffffffffffffffffffffffffffffffff021916908373ffffffffffffffffffffffffffffffffffffffff16021790555050565b6126d3613da6565b60005b828290508110156127f7576001600660008585858181106126fa576126f9614ddf565b5b905060200201602081019061270f9190614685565b73ffffffffffffffffffffffffffffffffffffffff1673ffffffffffffffffffffffffffffffffffffffff16815260200190815260200160002060006101000a81548160ff021916908315150217905550600783838381811061277557612774614ddf565b5b905060200201602081019061278a9190614685565b9080600181540180825580915050600190039060005260206000200160009091909190916101000a81548173ffffffffffffffffffffffffffffffffffffffff021916908373ffffffffffffffffffffffffffffffffffffffff16021790555080806001019150506126d6565b505050565b60096020528060005260406000206000915054906101000a900460ff1681565b600080600d5403612862576040517f08c379a000000000000000000000000000000000000000000000000000000000815260040161285990615587565b60405180910390fd5b61288b600d5461287d84600c54613e7c90919063ffffffff16565b613e9290919063ffffffff16565b9050919050565b60006128a5670de0b6b3a764000061281c565b905090565b6128b2613e2d565b600860009054906101000a900460ff16612901576040517f08c379a00000000000000000000000000000000000000000000000000000000081526004016128f89061537b565b60405180910390fd5b60004290506000806000601160003373ffffffffffffffffffffffffffffffffffffffff1673ffffffffffffffffffffffffffffffffffffffff168152602001908152602001600020905060005b8180549050811015612a005761299460055483838154811061297457612973614ddf565b5b906000526020600020906002020160010154613ebe90919063ffffffff16565b85106129ee576129d18282815481106129b0576129af614ddf565b5b90600052602060002090600202016000015485613ebe90919063ffffffff16565b935082806129de906155a7565b935050600a8311612a00576129f3565b612a00565b808060010191505061294f565b5060008303612a44576040517f08c379a0000000000000000000000000000000000000000000000000000000008152600401612a3b9061563b565b60405180910390fd5b601454831115612a89576040517f08c379a0000000000000000000000000000000000000000000000000000000008152600401612a80906156cd565b60405180910390fd5b47831115612acc576040517f08c379a0000000000000000000000000000000000000000000000000000000008152600401612ac39061575f565b60405180910390fd5b60005b612ae6838380549050613ea890919063ffffffff16565b811015612b655781612b018285613ebe90919063ffffffff16565b81548110612b1257612b11614ddf565b5b9060005260206000209060020201828281548110612b3357612b32614ddf565b5b906000526020600020906002020160008201548160000155600182015481600101559050508080600101915050612acf565b5060005b82811015612bb85781805480612b8257612b816150e4565b5b60019003818190600052602060002090600202016000808201600090556001820160009055505090558080600101915050612b69565b5060008180549050148015612c165750601260003373ffffffffffffffffffffffffffffffffffffffff1673ffffffffffffffffffffffffffffffffffffffff16815260200190815260200160002060009054906101000a900460ff165b15612c74576000601260003373ffffffffffffffffffffffffffffffffffffffff1673ffffffffffffffffffffffffffffffffffffffff16815260200190815260200160002060006101000a81548160ff0219169083151502179055505b612c8983601454613ea890919063ffffffff16565b60148190555060003373ffffffffffffffffffffffffffffffffffffffff166108fc859081150290604051600060405180830381858888f19350505050905080612d08576040517f08c379a0000000000000000000000000000000000000000000000000000000008152600401612cff906157cb565b60405180910390fd5b3373ffffffffffffffffffffffffffffffffffffffff167fd2263e970e3552b8e14c013f4d6af030894ef3ae6f025607042368db047a44188542604051612d50929190614712565b60405180910390a25050505050612d65613ed4565b565b60176020528060005260406000206000915090505481565b612d87613da6565b600073ffffffffffffffffffffffffffffffffffffffff168173ffffffffffffffffffffffffffffffffffffffff1603612df6576040517f08c379a0000000000000000000000000000000000000000000000000000000008152600401612ded90615837565b60405180910390fd5b80600360006101000a81548173ffffffffffffffffffffffffffffffffffffffff021916908373ffffffffffffffffffffffffffffffffffffffff1602179055508073ffffffffffffffffffffffffffffffffffffffff163373ffffffffffffffffffffffffffffffffffffffff167f55783c69d569b7b11e5b76fb690a0ea35a48575dacaca1474a0799c57058971242604051612e9491906146c1565b60405180910390a350565b60188181548110612eaf57600080fd5b906000526020600020016000915090505481565b600b60009054906101000a900473ffffffffffffffffffffffffffffffffffffffff1681565b600a60009054906101000a900473ffffffffffffffffffffffffffffffffffffffff1681565b612f1833613a7e565b612f57576040517f08c379a0000000000000000000000000000000000000000000000000000000008152600401612f4e906151cb565b60405180910390fd5b6000600b60006101000a81548173ffffffffffffffffffffffffffffffffffffffff021916908373ffffffffffffffffffffffffffffffffffffffff160217905550565b60145481565b612faa33613a7e565b612fe9576040517f08c379a0000000000000000000000000000000000000000000000000000000008152600401612fe0906151cb565b60405180910390fd5b80600b60006101000a81548173ffffffffffffffffffffffffffffffffffffffff021916908373ffffffffffffffffffffffffffffffffffffffff16021790555050565b613035613da6565b60005b8282905081101561313e5761307383838381811061305957613058614ddf565b5b905060200201602081019061306e9190614685565b613edd565b6130b2576040517f08c379a00000000000000000000000000000000000000000000000000000000081526004016130a99061501f565b60405180910390fd5b6001600960008585858181106130cb576130ca614ddf565b5b90506020020160208101906130e09190614685565b73ffffffffffffffffffffffffffffffffffffffff1673ffffffffffffffffffffffffffffffffffffffff16815260200190815260200160002060006101000a81548160ff0219169083151502179055508080600101915050613038565b505050565b60165481565b60155481565b60045481565b61315d613da6565b61316685611139565b61316f84612d7f565b61317883611de4565b61318182613857565b61318a81611d7f565b5050505050565b6060600060138054905067ffffffffffffffff8111156131b4576131b3615857565b5b6040519080825280602002602001820160405280156131ed57816020015b6131da61446e565b8152602001906001900390816131d25790505b50905060005b6013805490508110156133485760006013828154811061321657613215614ddf565b5b9060005260206000200160009054906101000a900473ffffffffffffffffffffffffffffffffffffffff1690506000601160008373ffffffffffffffffffffffffffffffffffffffff1673ffffffffffffffffffffffffffffffffffffffff168152602001908152602001600020805480602002602001604051908101604052809291908181526020016000905b828210156132ea578382906000526020600020906002020160405180604001604052908160008201548152602001600182015481525050815260200190600101906132a4565b50505050905060405180604001604052808373ffffffffffffffffffffffffffffffffffffffff1681526020018281525084848151811061332e5761332d614ddf565b5b6020026020010181905250505080806001019150506131f3565b508091505090565b60126020528060005260406000206000915054906101000a900460ff1681565b600d5481565b61337e613e2d565b600860009054906101000a900460ff166133cd576040517f08c379a00000000000000000000000000000000000000000000000000000000081526004016133c49061537b565b60405180910390fd5b60003411613410576040517f08c379a0000000000000000000000000000000000000000000000000000000008152600401613407906158f8565b60405180910390fd5b600034905061342a81600e54613ebe90919063ffffffff16565b600e8190555061344581600c54613ebe90919063ffffffff16565b600c819055503373ffffffffffffffffffffffffffffffffffffffff167f49bb2edd8608e46c3b9823ec2dabe8ddf219c00870a4a112ff60a1a70669f4578242604051613493929190614712565b60405180910390a2506134a4613ed4565b565b6134ae613e2d565b600860009054906101000a900460ff166134fd576040517f08c379a00000000000000000000000000000000000000000000000000000000081526004016134f49061537b565b60405180910390fd5b60003411613540576040517f08c379a000000000000000000000000000000000000000000000000000000000815260040161353790615964565b60405180910390fd5b600073ffffffffffffffffffffffffffffffffffffffff16600360009054906101000a900473ffffffffffffffffffffffffffffffffffffffff1673ffffffffffffffffffffffffffffffffffffffff16036135d1576040517f08c379a00000000000000000000000000000000000000000000000000000000081526004016135c8906159d0565b60405180910390fd5b620d2f00600554101580156135eb575062278d0060055411155b61362a576040517f08c379a000000000000000000000000000000000000000000000000000000000815260040161362190615a62565b60405180910390fd5b6000349050600080600d540361364257819050613693565b6000600c5403613687576040517f08c379a000000000000000000000000000000000000000000000000000000000815260040161367e90615af4565b60405180910390fd5b61369082611cf6565b90505b6136a882600e54613ebe90919063ffffffff16565b600e819055506136c382600d54613ebe90919063ffffffff16565b600d819055506136de82600c54613ebe90919063ffffffff16565b600c81905550600260009054906101000a900473ffffffffffffffffffffffffffffffffffffffff1673ffffffffffffffffffffffffffffffffffffffff166340c10f1933836040518363ffffffff1660e01b8152600401613741929190615449565b600060405180830381600087803b15801561375b57600080fd5b505af115801561376f573d6000803e3d6000fd5b505050503373ffffffffffffffffffffffffffffffffffffffff167f445b6299c386d845a282565eba224a183ae1062133e1b062b35d93f855fd59bd8383426040516137bd93929190615472565b60405180910390a250506137cf613ed4565b565b6137d9613da6565b600073ffffffffffffffffffffffffffffffffffffffff168173ffffffffffffffffffffffffffffffffffffffff160361384b5760006040517f1e4fbdf7000000000000000000000000000000000000000000000000000000008152600401613842919061466a565b60405180910390fd5b613854816141ce565b50565b61386033613a7e565b61389f576040517f08c379a0000000000000000000000000000000000000000000000000000000008152600401613896906151cb565b60405180910390fd5b80600860006101000a81548160ff02191690831515021790555050565b60006138cf670de0b6b3a764000061281c565b905090565b600e5481565b6000439050600080600090505b60188054905081101561398e578261392760056018848154811061390e5761390d614ddf565b5b9060005260206000200154613ebe90919063ffffffff16565b101561398157613973601760006018848154811061394857613947614ddf565b5b9060005260206000200154815260200190815260200160002054601654613ebe90919063ffffffff16565b60168190555080915061398e565b80806001019150506138e7565b5060005b816018805490506139a391906150b0565b811015613a3857601882826139b89190615b14565b815481106139c9576139c8614ddf565b5b9060005260206000200154601882815481106139e8576139e7614ddf565b5b90600052602060002001819055506017600060188381548110613a0e57613a0d614ddf565b5b90600052602060002001548152602001908152602001600020600090558080600101915050613992565b5060005b81811015613a79576018805480613a5657613a556150e4565b5b600190038181906000526020600020016000905590558080600101915050613a3c565b505050565b6000613a8861254b565b73ffffffffffffffffffffffffffffffffffffffff168273ffffffffffffffffffffffffffffffffffffffff161480613b0a5750600660008373ffffffffffffffffffffffffffffffffffffffff1673ffffffffffffffffffffffffffffffffffffffff16815260200190815260200160002060009054906101000a900460ff165b9050919050565b6000818310613b205781613b22565b825b905092915050565b613b3382613edd565b613b72576040517f08c379a0000000000000000000000000000000000000000000000000000000008152600401613b699061501f565b60405180910390fd5b662386f26fc10000811015613bbc576040517f08c379a0000000000000000000000000000000000000000000000000000000008152600401613bb390615bba565b60405180910390fd5b613bd181601054613ea890919063ffffffff16565b600e8190555060008273ffffffffffffffffffffffffffffffffffffffff16636c68c0e1836040518263ffffffff1660e01b8152600401613c1291906146c1565b6020604051808303816000875af1158015613c31573d6000803e3d6000fd5b505050506040513d601f19601f82011682018060405250810190613c559190615054565b90508015613ce457613c7282601554613ebe90919063ffffffff16565b6015819055508273ffffffffffffffffffffffffffffffffffffffff163373ffffffffffffffffffffffffffffffffffffffff167f50dbb5c34daa1bbb4c29a0c5306c374951d6995e791af4610ff9a54d2d2a9ee88442604051613cd7929190614712565b60405180910390a3613da1565b613cf982601054613ebe90919063ffffffff16565b600e819055508273ffffffffffffffffffffffffffffffffffffffff163373ffffffffffffffffffffffffffffffffffffffff167f6684f3bce4d1ead2354c1f42f1b0ad1b52d0d6faacd6c1596cd4ba865cb5dccd8442604051613d5e929190614712565b60405180910390a36040517f08c379a0000000000000000000000000000000000000000000000000000000008152600401613d9890614efb565b60405180910390fd5b505050565b613dae61438d565b73ffffffffffffffffffffffffffffffffffffffff16613dcc61254b565b73ffffffffffffffffffffffffffffffffffffffff1614613e2b57613def61438d565b6040517f118cdaa7000000000000000000000000000000000000000000000000000000008152600401613e22919061466a565b60405180910390fd5b565b600260015403613e72576040517f08c379a0000000000000000000000000000000000000000000000000000000008152600401613e6990615c26565b60405180910390fd5b6002600181905550565b60008183613e8a9190615c46565b905092915050565b60008183613ea09190615cb7565b905092915050565b60008183613eb691906150b0565b905092915050565b60008183613ecc9190615b14565b905092915050565b60018081905550565b600080823b905060008111915050919050565b662386f26fc10000811015613f3a576040517f08c379a0000000000000000000000000000000000000000000000000000000008152600401613f3190615d5a565b60405180910390fd5b47811115613f7d576040517f08c379a0000000000000000000000000000000000000000000000000000000008152600401613f749061575f565b60405180910390fd5b600960008373ffffffffffffffffffffffffffffffffffffffff1673ffffffffffffffffffffffffffffffffffffffff16815260200190815260200160002060009054906101000a900460ff16614009576040517f08c379a00000000000000000000000000000000000000000000000000000000081526004016140009061551b565b60405180910390fd5b61401e81600e54613ea890919063ffffffff16565b600e8190555060008273ffffffffffffffffffffffffffffffffffffffff1663c89e4361836040518263ffffffff1660e01b815260040160206040518083038185885af1158015614073573d6000803e3d6000fd5b50505050506040513d601f19601f820116820180604052508101906140989190615054565b9050801561410c578273ffffffffffffffffffffffffffffffffffffffff163373ffffffffffffffffffffffffffffffffffffffff167f58ddbb6a1d1dda5beaa8fe78f0ead040a3bc818fcc98bcfbd4b06c1249fff6ef84426040516140ff929190614712565b60405180910390a36141c9565b61412182600e54613ebe90919063ffffffff16565b600e819055508273ffffffffffffffffffffffffffffffffffffffff163373ffffffffffffffffffffffffffffffffffffffff167fd8879799fc3b71ede374dadada0d0c9df667aa124fede6edb791f4479932671b8442604051614186929190614712565b60405180910390a36040517f08c379a00000000000000000000000000000000000000000000000000000000081526004016141c090614efb565b60405180910390fd5b505050565b60008060009054906101000a900473ffffffffffffffffffffffffffffffffffffffff169050816000806101000a81548173ffffffffffffffffffffffffffffffffffffffff021916908373ffffffffffffffffffffffffffffffffffffffff1602179055508173ffffffffffffffffffffffffffffffffffffffff168173ffffffffffffffffffffffffffffffffffffffff167f8be0079c531659141344cd1fd0a4f28419497f9722a3daafe3b4186f6b6457e060405160405180910390a35050565b60004390506000601880549050146143225780601860016018805490506142b991906150b0565b815481106142ca576142c9614ddf565b5b90600052602060002001541461431d576018819080600181540180825580915050600190039060005260206000200160009091909190915055600060176000838152602001908152602001600020819055505b61434c565b60188190806001815401808255809150506001900390600052602060002001600090919091909150555b614372826017600084815260200190815260200160002054613ebe90919063ffffffff16565b60176000838152602001908152602001600020819055505050565b600033905090565b604051806102000160405280600073ffffffffffffffffffffffffffffffffffffffff168152602001600073ffffffffffffffffffffffffffffffffffffffff168152602001600081526020016000815260200160608152602001600015158152602001600015158152602001600073ffffffffffffffffffffffffffffffffffffffff168152602001600073ffffffffffffffffffffffffffffffffffffffff168152602001600081526020016000815260200160008152602001600081526020016000815260200160008152602001600081525090565b6040518060400160405280600073ffffffffffffffffffffffffffffffffffffffff168152602001606081525090565b600080fd5b600080fd5b600073ffffffffffffffffffffffffffffffffffffffff82169050919050565b60006144d3826144a8565b9050919050565b6144e3816144c8565b81146144ee57600080fd5b50565b600081359050614500816144da565b92915050565b6000819050919050565b61451981614506565b811461452457600080fd5b50565b60008135905061453681614510565b92915050565b600080604083850312156145535761455261449e565b5b6000614561858286016144f1565b925050602061457285828601614527565b9150509250929050565b600080fd5b600080fd5b600080fd5b60008083601f8401126145a1576145a061457c565b5b8235905067ffffffffffffffff8111156145be576145bd614581565b5b6020830191508360208202830111156145da576145d9614586565b5b9250929050565b600080602083850312156145f8576145f761449e565b5b600083013567ffffffffffffffff811115614616576146156144a3565b5b6146228582860161458b565b92509250509250929050565b6000602082840312156146445761464361449e565b5b600061465284828501614527565b91505092915050565b614664816144c8565b82525050565b600060208201905061467f600083018461465b565b92915050565b60006020828403121561469b5761469a61449e565b5b60006146a9848285016144f1565b91505092915050565b6146bb81614506565b82525050565b60006020820190506146d660008301846146b2565b92915050565b60008115159050919050565b6146f1816146dc565b82525050565b600060208201905061470c60008301846146e8565b92915050565b600060408201905061472760008301856146b2565b61473460208301846146b2565b9392505050565b614744816146dc565b811461474f57600080fd5b50565b6000813590506147618161473b565b92915050565b60006020828403121561477d5761477c61449e565b5b600061478b84828501614752565b91505092915050565b61479d816144c8565b82525050565b6147ac81614506565b82525050565b600081519050919050565b600082825260208201905092915050565b6000819050602082019050919050565b60006147ea8383614794565b60208301905092915050565b6000602082019050919050565b600061480e826147b2565b61481881856147bd565b9350614823836147ce565b8060005b8381101561485457815161483b88826147de565b9750614846836147f6565b925050600181019050614827565b5085935050505092915050565b61486a816146dc565b82525050565b6000610200830160008301516148896000860182614794565b50602083015161489c6020860182614794565b5060408301516148af60408601826147a3565b5060608301516148c260608601826147a3565b50608083015184820360808601526148da8282614803565b91505060a08301516148ef60a0860182614861565b5060c083015161490260c0860182614861565b5060e083015161491560e0860182614794565b5061010083015161492a610100860182614794565b5061012083015161493f6101208601826147a3565b506101408301516149546101408601826147a3565b506101608301516149696101608601826147a3565b5061018083015161497e6101808601826147a3565b506101a08301516149936101a08601826147a3565b506101c08301516149a86101c08601826147a3565b506101e08301516149bd6101e08601826147a3565b508091505092915050565b600060208201905081810360008301526149e28184614870565b905092915050565b600080600080600060a08688031215614a0657614a0561449e565b5b6000614a1488828901614527565b9550506020614a25888289016144f1565b9450506040614a3688828901614527565b9350506060614a4788828901614752565b9250506080614a5888828901614752565b9150509295509295909350565b600081519050919050565b600082825260208201905092915050565b6000819050602082019050919050565b600081519050919050565b600082825260208201905092915050565b6000819050602082019050919050565b604082016000820151614ad360008501826147a3565b506020820151614ae660208501826147a3565b50505050565b6000614af88383614abd565b60408301905092915050565b6000602082019050919050565b6000614b1c82614a91565b614b268185614a9c565b9350614b3183614aad565b8060005b83811015614b62578151614b498882614aec565b9750614b5483614b04565b925050600181019050614b35565b5085935050505092915050565b6000604083016000830151614b876000860182614794565b5060208301518482036020860152614b9f8282614b11565b9150508091505092915050565b6000614bb88383614b6f565b905092915050565b6000602082019050919050565b6000614bd882614a65565b614be28185614a70565b935083602082028501614bf485614a81565b8060005b85811015614c305784840389528151614c118582614bac565b9450614c1c83614bc0565b925060208a01995050600181019050614bf8565b50829750879550505050505092915050565b60006020820190508181036000830152614c5c8184614bcd565b905092915050565b600082825260208201905092915050565b7f4d616e6167656d656e7420416374696f6e206973206e6f7420616c6c6f77656460008201527f2e00000000000000000000000000000000000000000000000000000000000000602082015250565b6000614cd1602183614c64565b9150614cdc82614c75565b604082019050919050565b60006020820190508181036000830152614d0081614cc4565b9050919050565b7f43616e6e6f7420756e64656c6567617465000000000000000000000000000000600082015250565b6000614d3d601183614c64565b9150614d4882614d07565b602082019050919050565b60006020820190508181036000830152614d6c81614d30565b9050919050565b7f6175746f5f756e64656c65676174655f6164647265737320697320656d707479600082015250565b6000614da9602083614c64565b9150614db482614d73565b602082019050919050565b60006020820190508181036000830152614dd881614d9c565b9050919050565b7f4e487b7100000000000000000000000000000000000000000000000000000000600052603260045260246000fd5b600081519050919050565b60005b83811015614e37578082015181840152602081019050614e1c565b60008484015250505050565b6000601f19601f8301169050919050565b6000614e5f82614e0e565b614e698185614c64565b9350614e79818560208601614e19565b614e8281614e43565b840191505092915050565b60006020820190508181036000830152614ea78184614e54565b905092915050565b7f5472616e73616374696f6e206661696c65640000000000000000000000000000600082015250565b6000614ee5601283614c64565b9150614ef082614eaf565b602082019050919050565b60006020820190508181036000830152614f1481614ed8565b9050919050565b7f756e626f6e64696e675f706572696f64206d75737420626520696e2072616e6760008201527f6500000000000000000000000000000000000000000000000000000000000000602082015250565b6000614f77602183614c64565b9150614f8282614f1b565b604082019050919050565b60006020820190508181036000830152614fa681614f6a565b9050919050565b7f476976656e2061646472657373206973206e6f7420736d61727420636f6e747260008201527f6163740000000000000000000000000000000000000000000000000000000000602082015250565b6000615009602383614c64565b915061501482614fad565b604082019050919050565b6000602082019050818103600083015261503881614ffc565b9050919050565b60008151905061504e8161473b565b92915050565b60006020828403121561506a5761506961449e565b5b60006150788482850161503f565b91505092915050565b7f4e487b7100000000000000000000000000000000000000000000000000000000600052601160045260246000fd5b60006150bb82614506565b91506150c683614506565b92508282039050818111156150de576150dd615081565b5b92915050565b7f4e487b7100000000000000000000000000000000000000000000000000000000600052603160045260246000fd5b7f4e6f2045544820666f7220776974686472617700000000000000000000000000600082015250565b6000615149601383614c64565b915061515482615113565b602082019050919050565b600060208201905081810360008301526151788161513c565b9050919050565b7f596f7520617265206e6f74204f776e6572206f722041646d696e2e0000000000600082015250565b60006151b5601b83614c64565b91506151c08261517f565b602082019050919050565b600060208201905081810360008301526151e4816151a8565b9050919050565b7f6175746f5f64656c65676174655f6164647265737320697320656d7074790000600082015250565b6000615221601e83614c64565b915061522c826151eb565b602082019050919050565b6000602082019050818103600083015261525081615214565b9050919050565b7f706f6f6c5f4554485f616d6f756e74206973207a65726f000000000000000000600082015250565b600061528d601783614c64565b915061529882615257565b602082019050919050565b600060208201905081810360008301526152bc81615280565b9050919050565b7f6665652063616e6e6f7420626520686967686572207468616e20313030252e00600082015250565b60006152f9601f83614c64565b9150615304826152c3565b602082019050919050565b60006020820190508181036000830152615328816152ec565b9050919050565b7f5573657220416374696f6e206973206e6f7420616c6c6f7765642e0000000000600082015250565b6000615365601b83614c64565b91506153708261532f565b602082019050919050565b6000602082019050818103600083015261539481615358565b9050919050565b6000815190506153aa81614510565b92915050565b6000602082840312156153c6576153c561449e565b5b60006153d48482850161539b565b91505092915050565b7f4e6f20564554482073656e742e00000000000000000000000000000000000000600082015250565b6000615413600d83614c64565b915061541e826153dd565b602082019050919050565b6000602082019050818103600083015261544281615406565b9050919050565b600060408201905061545e600083018561465b565b61546b60208301846146b2565b9392505050565b600060608201905061548760008301866146b2565b61549460208301856146b2565b6154a160408301846146b2565b949350505050565b7f476976656e205374616b696e672050726f7669646572206973206e6f7420776860008201527f6974656c69737465640000000000000000000000000000000000000000000000602082015250565b6000615505602983614c64565b9150615510826154a9565b604082019050919050565b60006020820190508181036000830152615534816154f8565b9050919050565b7f706f6f6c5f564554485f616d6f756e74206973207a65726f0000000000000000600082015250565b6000615571601883614c64565b915061557c8261553b565b602082019050919050565b600060208201905081810360008301526155a081615564565b9050919050565b60006155b282614506565b91507fffffffffffffffffffffffffffffffffffffffffffffffffffffffffffffffff82036155e4576155e3615081565b5b600182019050919050565b7f4e6f2045544820746f2077697468647261772e00000000000000000000000000600082015250565b6000615625601383614c64565b9150615630826155ef565b602082019050919050565b6000602082019050818103600083015261565481615618565b9050919050565b7f455448206973206e6f7420756e626f6e6465642066726f6d2064656c6567617460008201527f652070726f766964657273207965742e00000000000000000000000000000000602082015250565b60006156b7603083614c64565b91506156c28261565b565b604082019050919050565b600060208201905081810360008301526156e6816156aa565b9050919050565b7f4e6f7420656e6f7567682045544820696e20536d61727420436f6e747261637460008201527f2e00000000000000000000000000000000000000000000000000000000000000602082015250565b6000615749602183614c64565b9150615754826156ed565b604082019050919050565b600060208201905081810360008301526157788161573c565b9050919050565b7f5472616e73666572206661696c65640000000000000000000000000000000000600082015250565b60006157b5600f83614c64565b91506157c08261577f565b602082019050919050565b600060208201905081810360008301526157e4816157a8565b9050919050565b7f5a65726f20616464726573730000000000000000000000000000000000000000600082015250565b6000615821600c83614c64565b915061582c826157eb565b602082019050919050565b6000602082019050818103600083015261585081615814565b9050919050565b7f4e487b7100000000000000000000000000000000000000000000000000000000600052604160045260246000fd5b7f446f6e6174696f6e20616d6f756e74206d75737420626520677265617465722060008201527f7468616e20300000000000000000000000000000000000000000000000000000602082015250565b60006158e2602683614c64565b91506158ed82615886565b604082019050919050565b60006020820190508181036000830152615911816158d5565b9050919050565b7f4e6f204554482073656e742e0000000000000000000000000000000000000000600082015250565b600061594e600c83614c64565b915061595982615918565b602082019050919050565b6000602082019050818103600083015261597d81615941565b9050919050565b7f54726561737572792077616c6c6574206973206e6f74207365742e0000000000600082015250565b60006159ba601b83614c64565b91506159c582615984565b602082019050919050565b600060208201905081810360008301526159e9816159ad565b9050919050565b7f556e626f6e64696e6720706572696f64206d7573742062652077697468696e2060008201527f746865207370656369666965642072616e67652e000000000000000000000000602082015250565b6000615a4c603483614c64565b9150615a57826159f0565b604082019050919050565b60006020820190508181036000830152615a7b81615a3f565b9050919050565b7f5374616b65642045544820616d6f756e74206973207a65726f207768696c652060008201527f7374616b6564205645544820616d6f756e74206973206e6f74207a65726f0000602082015250565b6000615ade603e83614c64565b9150615ae982615a82565b604082019050919050565b60006020820190508181036000830152615b0d81615ad1565b9050919050565b6000615b1f82614506565b9150615b2a83614506565b9250828201905080821115615b4257615b41615081565b5b92915050565b7f756e64656c65676174696e675f616d6f756e742063616e6e6f74206265206c6560008201527f7373207468616e2031204554482e000000000000000000000000000000000000602082015250565b6000615ba4602e83614c64565b9150615baf82615b48565b604082019050919050565b60006020820190508181036000830152615bd381615b97565b9050919050565b7f5265656e7472616e637947756172643a207265656e7472616e742063616c6c00600082015250565b6000615c10601f83614c64565b9150615c1b82615bda565b602082019050919050565b60006020820190508181036000830152615c3f81615c03565b9050919050565b6000615c5182614506565b9150615c5c83614506565b9250828202615c6a81614506565b91508282048414831517615c8157615c80615081565b5b5092915050565b7f4e487b7100000000000000000000000000000000000000000000000000000000600052601260045260246000fd5b6000615cc282614506565b9150615ccd83614506565b925082615cdd57615cdc615c88565b5b828204905092915050565b7f64656c65676174696e675f616d6f756e742063616e6e6f74206265206c65737360008201527f207468616e2031204554482e0000000000000000000000000000000000000000602082015250565b6000615d44602c83614c64565b9150615d4f82615ce8565b604082019050919050565b60006020820190508181036000830152615d7381615d37565b905091905056fea264697066735822122028da5d4f3559352fbc6990fb2de25b043a20cd5f45eccb09ed66844a39c8826964736f6c634300081a0033608060405234801561001057600080fd5b5060405161195a38038061195a8339818101604052810190610032919061031b565b338282816003908161004491906105b4565b50806004908161005491906105b4565b505050600073ffffffffffffffffffffffffffffffffffffffff168173ffffffffffffffffffffffffffffffffffffffff16036100c95760006040517f1e4fbdf70000000000000000000000000000000000000000000000000000000081526004016100c091906106c7565b60405180910390fd5b6100d8816100e060201b60201c565b5050506106e2565b6000600560009054906101000a900473ffffffffffffffffffffffffffffffffffffffff16905081600560006101000a81548173ffffffffffffffffffffffffffffffffffffffff021916908373ffffffffffffffffffffffffffffffffffffffff1602179055508173ffffffffffffffffffffffffffffffffffffffff168173ffffffffffffffffffffffffffffffffffffffff167f8be0079c531659141344cd1fd0a4f28419497f9722a3daafe3b4186f6b6457e060405160405180910390a35050565b6000604051905090565b600080fd5b600080fd5b600080fd5b600080fd5b6000601f19601f8301169050919050565b7f4e487b7100000000000000000000000000000000000000000000000000000000600052604160045260246000fd5b61020d826101c4565b810181811067ffffffffffffffff8211171561022c5761022b6101d5565b5b80604052505050565b600061023f6101a6565b905061024b8282610204565b919050565b600067ffffffffffffffff82111561026b5761026a6101d5565b5b610274826101c4565b9050602081019050919050565b60005b8381101561029f578082015181840152602081019050610284565b60008484015250505050565b60006102be6102b984610250565b610235565b9050828152602081018484840111156102da576102d96101bf565b5b6102e5848285610281565b509392505050565b600082601f830112610302576103016101ba565b5b81516103128482602086016102ab565b91505092915050565b60008060408385031215610332576103316101b0565b5b600083015167ffffffffffffffff8111156103505761034f6101b5565b5b61035c858286016102ed565b925050602083015167ffffffffffffffff81111561037d5761037c6101b5565b5b610389858286016102ed565b9150509250929050565b600081519050919050565b7f4e487b7100000000000000000000000000000000000000000000000000000000600052602260045260246000fd5b600060028204905060018216806103e557607f821691505b6020821081036103f8576103f761039e565b5b50919050565b60008190508160005260206000209050919050565b60006020601f8301049050919050565b600082821b905092915050565b6000600883026104607fffffffffffffffffffffffffffffffffffffffffffffffffffffffffffffffff82610423565b61046a8683610423565b95508019841693508086168417925050509392505050565b6000819050919050565b6000819050919050565b60006104b16104ac6104a784610482565b61048c565b610482565b9050919050565b6000819050919050565b6104cb83610496565b6104df6104d7826104b8565b848454610430565b825550505050565b600090565b6104f46104e7565b6104ff8184846104c2565b505050565b5b81811015610523576105186000826104ec565b600181019050610505565b5050565b601f82111561056857610539816103fe565b61054284610413565b81016020851015610551578190505b61056561055d85610413565b830182610504565b50505b505050565b600082821c905092915050565b600061058b6000198460080261056d565b1980831691505092915050565b60006105a4838361057a565b9150826002028217905092915050565b6105bd82610393565b67ffffffffffffffff8111156105d6576105d56101d5565b5b6105e082546103cd565b6105eb828285610527565b600060209050601f83116001811461061e576000841561060c578287015190505b6106168582610598565b86555061067e565b601f19841661062c866103fe565b60005b828110156106545784890151825560018201915060208501945060208101905061062f565b86831015610671578489015161066d601f89168261057a565b8355505b6001600288020188555050505b505050505050565b600073ffffffffffffffffffffffffffffffffffffffff82169050919050565b60006106b182610686565b9050919050565b6106c1816106a6565b82525050565b60006020820190506106dc60008301846106b8565b92915050565b611269806106f16000396000f3fe608060405234801561001057600080fd5b50600436106100ea5760003560e01c8063715018a61161008c5780639dc29fac116100665780639dc29fac1461023b578063a9059cbb14610257578063dd62ed3e14610287578063f2fde38b146102b7576100ea565b8063715018a6146101f55780638da5cb5b146101ff57806395d89b411461021d576100ea565b806323b872dd116100c857806323b872dd1461015b578063313ce5671461018b57806340c10f19146101a957806370a08231146101c5576100ea565b806306fdde03146100ef578063095ea7b31461010d57806318160ddd1461013d575b600080fd5b6100f76102d3565b6040516101049190610ebd565b60405180910390f35b61012760048036038101906101229190610f78565b610365565b6040516101349190610fd3565b60405180910390f35b610145610388565b6040516101529190610ffd565b60405180910390f35b61017560048036038101906101709190611018565b610392565b6040516101829190610fd3565b60405180910390f35b6101936103c1565b6040516101a09190611087565b60405180910390f35b6101c360048036038101906101be9190610f78565b6103ca565b005b6101df60048036038101906101da91906110a2565b6103e0565b6040516101ec9190610ffd565b60405180910390f35b6101fd610428565b005b61020761043c565b60405161021491906110de565b60405180910390f35b610225610466565b6040516102329190610ebd565b60405180910390f35b61025560048036038101906102509190610f78565b6104f8565b005b610271600480360381019061026c9190610f78565b61050e565b60405161027e9190610fd3565b60405180910390f35b6102a1600480360381019061029c91906110f9565b610531565b6040516102ae9190610ffd565b60405180910390f35b6102d160048036038101906102cc91906110a2565b6105b8565b005b6060600380546102e290611168565b80601f016020809104026020016040519081016040528092919081815260200182805461030e90611168565b801561035b5780601f106103305761010080835404028352916020019161035b565b820191906000526020600020905b81548152906001019060200180831161033e57829003601f168201915b5050505050905090565b60008061037061063e565b905061037d818585610646565b600191505092915050565b6000600254905090565b60008061039d61063e565b90506103aa858285610658565b6103b58585856106ec565b60019150509392505050565b60006012905090565b6103d26107e0565b6103dc8282610867565b5050565b60008060008373ffffffffffffffffffffffffffffffffffffffff1673ffffffffffffffffffffffffffffffffffffffff168152602001908152602001600020549050919050565b6104306107e0565b61043a60006108e9565b565b6000600560009054906101000a900473ffffffffffffffffffffffffffffffffffffffff16905090565b60606004805461047590611168565b80601f01602080910402602001604051908101604052809291908181526020018280546104a190611168565b80156104ee5780601f106104c3576101008083540402835291602001916104ee565b820191906000526020600020905b8154815290600101906020018083116104d157829003601f168201915b5050505050905090565b6105006107e0565b61050a82826109af565b5050565b60008061051961063e565b90506105268185856106ec565b600191505092915050565b6000600160008473ffffffffffffffffffffffffffffffffffffffff1673ffffffffffffffffffffffffffffffffffffffff16815260200190815260200160002060008373ffffffffffffffffffffffffffffffffffffffff1673ffffffffffffffffffffffffffffffffffffffff16815260200190815260200160002054905092915050565b6105c06107e0565b600073ffffffffffffffffffffffffffffffffffffffff168173ffffffffffffffffffffffffffffffffffffffff16036106325760006040517f1e4fbdf700000000000000000000000000000000000000000000000000000000815260040161062991906110de565b60405180910390fd5b61063b816108e9565b50565b600033905090565b6106538383836001610a31565b505050565b60006106648484610531565b90507fffffffffffffffffffffffffffffffffffffffffffffffffffffffffffffffff81146106e657818110156106d6578281836040517ffb8f41b20000000000000000000000000000000000000000000000000000000081526004016106cd93929190611199565b60405180910390fd5b6106e584848484036000610a31565b5b50505050565b600073ffffffffffffffffffffffffffffffffffffffff168373ffffffffffffffffffffffffffffffffffffffff160361075e5760006040517f96c6fd1e00000000000000000000000000000000000000000000000000000000815260040161075591906110de565b60405180910390fd5b600073ffffffffffffffffffffffffffffffffffffffff168273ffffffffffffffffffffffffffffffffffffffff16036107d05760006040517fec442f050000000000000000000000000000000000000000000000000000000081526004016107c791906110de565b60405180910390fd5b6107db838383610c08565b505050565b6107e861063e565b73ffffffffffffffffffffffffffffffffffffffff1661080661043c565b73ffffffffffffffffffffffffffffffffffffffff16146108655761082961063e565b6040517f118cdaa700000000000000000000000000000000000000000000000000000000815260040161085c91906110de565b60405180910390fd5b565b600073ffffffffffffffffffffffffffffffffffffffff168273ffffffffffffffffffffffffffffffffffffffff16036108d95760006040517fec442f050000000000000000000000000000000000000000000000000000000081526004016108d091906110de565b60405180910390fd5b6108e560008383610c08565b5050565b6000600560009054906101000a900473ffffffffffffffffffffffffffffffffffffffff16905081600560006101000a81548173ffffffffffffffffffffffffffffffffffffffff021916908373ffffffffffffffffffffffffffffffffffffffff1602179055508173ffffffffffffffffffffffffffffffffffffffff168173ffffffffffffffffffffffffffffffffffffffff167f8be0079c531659141344cd1fd0a4f28419497f9722a3daafe3b4186f6b6457e060405160405180910390a35050565b600073ffffffffffffffffffffffffffffffffffffffff168273ffffffffffffffffffffffffffffffffffffffff1603610a215760006040517f96c6fd1e000000000000000000000000000000000000000000000000000000008152600401610a1891906110de565b60405180910390fd5b610a2d82600083610c08565b5050565b600073ffffffffffffffffffffffffffffffffffffffff168473ffffffffffffffffffffffffffffffffffffffff1603610aa35760006040517fe602df05000000000000000000000000000000000000000000000000000000008152600401610a9a91906110de565b60405180910390fd5b600073ffffffffffffffffffffffffffffffffffffffff168373ffffffffffffffffffffffffffffffffffffffff1603610b155760006040517f94280d62000000000000000000000000000000000000000000000000000000008152600401610b0c91906110de565b60405180910390fd5b81600160008673ffffffffffffffffffffffffffffffffffffffff1673ffffffffffffffffffffffffffffffffffffffff16815260200190815260200160002060008573ffffffffffffffffffffffffffffffffffffffff1673ffffffffffffffffffffffffffffffffffffffff168152602001908152602001600020819055508015610c02578273ffffffffffffffffffffffffffffffffffffffff168473ffffffffffffffffffffffffffffffffffffffff167f8c5be1e5ebec7d5bd14f71427d1e84f3dd0314c0f7b2291e5b200ac8c7c3b92584604051610bf99190610ffd565b60405180910390a35b50505050565b600073ffffffffffffffffffffffffffffffffffffffff168373ffffffffffffffffffffffffffffffffffffffff1603610c5a578060026000828254610c4e91906111ff565b92505081905550610d2d565b60008060008573ffffffffffffffffffffffffffffffffffffffff1673ffffffffffffffffffffffffffffffffffffffff16815260200190815260200160002054905081811015610ce6578381836040517fe450d38c000000000000000000000000000000000000000000000000000000008152600401610cdd93929190611199565b60405180910390fd5b8181036000808673ffffffffffffffffffffffffffffffffffffffff1673ffffffffffffffffffffffffffffffffffffffff16815260200190815260200160002081905550505b600073ffffffffffffffffffffffffffffffffffffffff168273ffffffffffffffffffffffffffffffffffffffff1603610d765780600260008282540392505081905550610dc3565b806000808473ffffffffffffffffffffffffffffffffffffffff1673ffffffffffffffffffffffffffffffffffffffff168152602001908152602001600020600082825401925050819055505b8173ffffffffffffffffffffffffffffffffffffffff168373ffffffffffffffffffffffffffffffffffffffff167fddf252ad1be2c89b69c2b068fc378daa952ba7f163c4a11628f55a4df523b3ef83604051610e209190610ffd565b60405180910390a3505050565b600081519050919050565b600082825260208201905092915050565b60005b83811015610e67578082015181840152602081019050610e4c565b60008484015250505050565b6000601f19601f8301169050919050565b6000610e8f82610e2d565b610e998185610e38565b9350610ea9818560208601610e49565b610eb281610e73565b840191505092915050565b60006020820190508181036000830152610ed78184610e84565b905092915050565b600080fd5b600073ffffffffffffffffffffffffffffffffffffffff82169050919050565b6000610f0f82610ee4565b9050919050565b610f1f81610f04565b8114610f2a57600080fd5b50565b600081359050610f3c81610f16565b92915050565b6000819050919050565b610f5581610f42565b8114610f6057600080fd5b50565b600081359050610f7281610f4c565b92915050565b60008060408385031215610f8f57610f8e610edf565b5b6000610f9d85828601610f2d565b9250506020610fae85828601610f63565b9150509250929050565b60008115159050919050565b610fcd81610fb8565b82525050565b6000602082019050610fe86000830184610fc4565b92915050565b610ff781610f42565b82525050565b60006020820190506110126000830184610fee565b92915050565b60008060006060848603121561103157611030610edf565b5b600061103f86828701610f2d565b935050602061105086828701610f2d565b925050604061106186828701610f63565b9150509250925092565b600060ff82169050919050565b6110818161106b565b82525050565b600060208201905061109c6000830184611078565b92915050565b6000602082840312156110b8576110b7610edf565b5b60006110c684828501610f2d565b91505092915050565b6110d881610f04565b82525050565b60006020820190506110f360008301846110cf565b92915050565b600080604083850312156111105761110f610edf565b5b600061111e85828601610f2d565b925050602061112f85828601610f2d565b9150509250929050565b7f4e487b7100000000000000000000000000000000000000000000000000000000600052602260045260246000fd5b6000600282049050600182168061118057607f821691505b60208210810361119357611192611139565b5b50919050565b60006060820190506111ae60008301866110cf565b6111bb6020830185610fee565b6111c86040830184610fee565b949350505050565b7f4e487b7100000000000000000000000000000000000000000000000000000000600052601160045260246000fd5b600061120a82610f42565b915061121583610f42565b925082820190508082111561122d5761122c6111d0565b5b9291505056fea264697066735822122047b8f374500d25283166acf0c7699d220f1233a1fe2f14f787648a0c58c4091a64736f6c634300081a0033",
  "linkReferences": {},
  "deployedLinkReferences": {}
}