{
  "_format": "hh-sol-artifact-1",
  "contractName": "StakingDelegate",
  "sourceName": "contracts/StakingDelegate.sol",
  "abi": [
    {
      "inputs": [],
      "stateMutability": "nonpayable",
      "type": "constructor"
    },
    {
      "inputs": [
        {
          "internalType": "address",
          "name": "owner",
          "type": "address"
        }
      ],
      "name": "OwnableInvalidOwner",
      "type": "error"
    },
    {
      "inputs": [
        {
          "internalType": "address",
          "name": "account",
          "type": "address"
        }
      ],
      "name": "OwnableUnauthorizedAccount",
      "type": "error"
    },
    {
      "anonymous": false,
      "inputs": [
        {
          "indexed": true,
          "internalType": "address",
          "name": "delegator",
          "type": "address"
        },
        {
          "indexed": false,
          "internalType": "uint256",
          "name": "amount",
          "type": "uint256"
        }
      ],
      "name": "Delegated",
      "type": "event"
    },
    {
      "anonymous": false,
      "inputs": [
        {
          "indexed": true,
          "internalType": "address",
          "name": "previousOwner",
          "type": "address"
        },
        {
          "indexed": true,
          "internalType": "address",
          "name": "newOwner",
          "type": "address"
        }
      ],
      "name": "OwnershipTransferred",
      "type": "event"
    },
    {
      "anonymous": false,
      "inputs": [
        {
          "indexed": true,
          "internalType": "address",
          "name": "delegator",
          "type": "address"
        },
        {
          "indexed": false,
          "internalType": "uint256",
          "name": "amount",
          "type": "uint256"
        }
      ],
      "name": "RewardsClaimed",
      "type": "event"
    },
    {
      "anonymous": false,
      "inputs": [
        {
          "indexed": true,
          "internalType": "address",
          "name": "delegator",
          "type": "address"
        },
        {
          "indexed": false,
          "internalType": "uint256",
          "name": "amount",
          "type": "uint256"
        }
      ],
      "name": "Undelegated",
      "type": "event"
    },
    {
      "anonymous": false,
      "inputs": [
        {
          "indexed": true,
          "internalType": "address",
          "name": "delegator",
          "type": "address"
        },
        {
          "indexed": false,
          "internalType": "uint256",
          "name": "amount",
          "type": "uint256"
        }
      ],
      "name": "Withdrawn",
      "type": "event"
    },
    {
      "inputs": [
        {
          "internalType": "address",
          "name": "delegator",
          "type": "address"
        }
      ],
      "name": "calculateRewards",
      "outputs": [
        {
          "internalType": "uint256",
          "name": "",
          "type": "uint256"
        }
      ],
      "stateMutability": "view",
      "type": "function"
    },
    {
      "inputs": [],
      "name": "claimRewards",
      "outputs": [
        {
          "internalType": "bool",
          "name": "success",
          "type": "bool"
        }
      ],
      "stateMutability": "nonpayable",
      "type": "function"
    },
    {
      "inputs": [],
      "name": "delegate",
      "outputs": [
        {
          "internalType": "bool",
          "name": "success",
          "type": "bool"
        }
      ],
      "stateMutability": "payable",
      "type": "function"
    },
    {
      "inputs": [
        {
          "internalType": "address",
          "name": "_address",
          "type": "address"
        }
      ],
      "name": "getDelegatedAmount",
      "outputs": [
        {
          "internalType": "uint256",
          "name": "",
          "type": "uint256"
        }
      ],
      "stateMutability": "view",
      "type": "function"
    },
    {
      "inputs": [],
      "name": "owner",
      "outputs": [
        {
          "internalType": "address",
          "name": "",
          "type": "address"
        }
      ],
      "stateMutability": "view",
      "type": "function"
    },
    {
      "inputs": [],
      "name": "renounceOwnership",
      "outputs": [],
      "stateMutability": "nonpayable",
      "type": "function"
    },
    {
      "inputs": [
        {
          "internalType": "uint256",
          "name": "newRate",
          "type": "uint256"
        }
      ],
      "name": "setRewardRate",
      "outputs": [],
      "stateMutability": "nonpayable",
      "type": "function"
    },
    {
      "inputs": [
        {
          "internalType": "address",
          "name": "newOwner",
          "type": "address"
        }
      ],
      "name": "transferOwnership",
      "outputs": [],
      "stateMutability": "nonpayable",
      "type": "function"
    },
    {
      "inputs": [
        {
          "internalType": "uint256",
          "name": "amount",
          "type": "uint256"
        }
      ],
      "name": "undelegate",
      "outputs": [
        {
          "internalType": "bool",
          "name": "success",
          "type": "bool"
        }
      ],
      "stateMutability": "nonpayable",
      "type": "function"
    },
    {
      "inputs": [],
      "name": "withdraw",
      "outputs": [
        {
          "internalType": "bool",
          "name": "success",
          "type": "bool"
        }
      ],
      "stateMutability": "nonpayable",
      "type": "function"
    },
    {
      "stateMutability": "payable",
      "type": "receive"
    }
  ],
  "bytecode": "0x6080604052606460055534801561001557600080fd5b50336001600081905550600073ffffffffffffffffffffffffffffffffffffffff168173ffffffffffffffffffffffffffffffffffffffff16036100915760006040517f1e4fbdf700000000000000000000000000000000000000000000000000000000815260040161008891906101ad565b60405180910390fd5b6100a0816100a660201b60201c565b506101c8565b6000600160009054906101000a900473ffffffffffffffffffffffffffffffffffffffff16905081600160006101000a81548173ffffffffffffffffffffffffffffffffffffffff021916908373ffffffffffffffffffffffffffffffffffffffff1602179055508173ffffffffffffffffffffffffffffffffffffffff168173ffffffffffffffffffffffffffffffffffffffff167f8be0079c531659141344cd1fd0a4f28419497f9722a3daafe3b4186f6b6457e060405160405180910390a35050565b600073ffffffffffffffffffffffffffffffffffffffff82169050919050565b60006101978261016c565b9050919050565b6101a78161018c565b82525050565b60006020820190506101c2600083018461019e565b92915050565b611402806101d76000396000f3fe6080604052600436106100955760003560e01c8063715018a611610059578063715018a6146101ae5780638da5cb5b146101c55780639e447fc6146101f0578063c89e436114610219578063f2fde38b146102375761009c565b8063073ea6ae146100a1578063372500ab146100de5780633ccfd60b1461010957806364ab8675146101345780636c68c0e1146101715761009c565b3661009c57005b600080fd5b3480156100ad57600080fd5b506100c860048036038101906100c39190610dc2565b610260565b6040516100d59190610e08565b60405180910390f35b3480156100ea57600080fd5b506100f36102a9565b6040516101009190610e3e565b60405180910390f35b34801561011557600080fd5b5061011e610497565b60405161012b9190610e3e565b60405180910390f35b34801561014057600080fd5b5061015b60048036038101906101569190610dc2565b6106d5565b6040516101689190610e08565b60405180910390f35b34801561017d57600080fd5b5061019860048036038101906101939190610e85565b61079b565b6040516101a59190610e3e565b60405180910390f35b3480156101ba57600080fd5b506101c3610939565b005b3480156101d157600080fd5b506101da61094d565b6040516101e79190610ec1565b60405180910390f35b3480156101fc57600080fd5b5061021760048036038101906102129190610e85565b610977565b005b6102216109ce565b60405161022e9190610e3e565b60405180910390f35b34801561024357600080fd5b5061025e60048036038101906102599190610dc2565b610b2b565b005b6000600260008373ffffffffffffffffffffffffffffffffffffffff1673ffffffffffffffffffffffffffffffffffffffff168152602001908152602001600020549050919050565b60006102b3610bb1565b60006102be336106d5565b905060008111610303576040517f08c379a00000000000000000000000000000000000000000000000000000000081526004016102fa90610f39565b60405180910390fd5b6000600360003373ffffffffffffffffffffffffffffffffffffffff1673ffffffffffffffffffffffffffffffffffffffff1681526020019081526020016000208190555060003373ffffffffffffffffffffffffffffffffffffffff168260405161036e90610f8a565b60006040518083038185875af1925050503d80600081146103ab576040519150601f19603f3d011682016040523d82523d6000602084013e6103b0565b606091505b50509050806103f4576040517f08c379a00000000000000000000000000000000000000000000000000000000081526004016103eb90610feb565b60405180910390fd5b42600660003373ffffffffffffffffffffffffffffffffffffffff1673ffffffffffffffffffffffffffffffffffffffff168152602001908152602001600020819055503373ffffffffffffffffffffffffffffffffffffffff167ffc30cddea38e2bf4d6ea7d3f9ed3b6ad7f176419f4963bd81318067a4aee73fe8360405161047e9190610e08565b60405180910390a2600192505050610494610c00565b90565b60006104a1610bb1565b6000600260003373ffffffffffffffffffffffffffffffffffffffff1673ffffffffffffffffffffffffffffffffffffffff16815260200190815260200160002054905060008111610528576040517f08c379a000000000000000000000000000000000000000000000000000000000815260040161051f90611057565b60405180910390fd5b6000600260003373ffffffffffffffffffffffffffffffffffffffff1673ffffffffffffffffffffffffffffffffffffffff16815260200190815260200160002081905550806004600082825461057f91906110a6565b9250508190555060003373ffffffffffffffffffffffffffffffffffffffff16826040516105ac90610f8a565b60006040518083038185875af1925050503d80600081146105e9576040519150601f19603f3d011682016040523d82523d6000602084013e6105ee565b606091505b5050905080610632576040517f08c379a000000000000000000000000000000000000000000000000000000000815260040161062990611126565b60405180910390fd5b42600660003373ffffffffffffffffffffffffffffffffffffffff1673ffffffffffffffffffffffffffffffffffffffff168152602001908152602001600020819055503373ffffffffffffffffffffffffffffffffffffffff167f7084f5476618d8e60b11ef0d7d3f06914655adb8793e28ff7f018d4c76d505d5836040516106bc9190610e08565b60405180910390a26001925050506106d2610c00565b90565b600080600260008473ffffffffffffffffffffffffffffffffffffffff1673ffffffffffffffffffffffffffffffffffffffff1681526020019081526020016000205490506000600660008573ffffffffffffffffffffffffffffffffffffffff1673ffffffffffffffffffffffffffffffffffffffff168152602001908152602001600020544261076791906110a6565b905064496cebb800816005548461077e9190611146565b6107889190611146565b61079291906111b7565b92505050919050565b60006107a5610bb1565b81600260003373ffffffffffffffffffffffffffffffffffffffff1673ffffffffffffffffffffffffffffffffffffffff168152602001908152602001600020541015610827576040517f08c379a000000000000000000000000000000000000000000000000000000000815260040161081e90611234565b60405180910390fd5b81600260003373ffffffffffffffffffffffffffffffffffffffff1673ffffffffffffffffffffffffffffffffffffffff168152602001908152602001600020600082825461087691906110a6565b92505081905550816004600082825461088f91906110a6565b9250508190555042600660003373ffffffffffffffffffffffffffffffffffffffff1673ffffffffffffffffffffffffffffffffffffffff168152602001908152602001600020819055503373ffffffffffffffffffffffffffffffffffffffff167f4ae68879209bc4b489a38251122202a3653305e3d95a27baf7a5681410c90b38836040516109209190610e08565b60405180910390a260019050610934610c00565b919050565b610941610c0a565b61094b6000610c91565b565b6000600160009054906101000a900473ffffffffffffffffffffffffffffffffffffffff16905090565b61097f610c0a565b6103e88111156109c4576040517f08c379a00000000000000000000000000000000000000000000000000000000081526004016109bb906112a0565b60405180910390fd5b8060058190555050565b60006109d8610bb1565b60003411610a1b576040517f08c379a0000000000000000000000000000000000000000000000000000000008152600401610a129061130c565b60405180910390fd5b34600260003373ffffffffffffffffffffffffffffffffffffffff1673ffffffffffffffffffffffffffffffffffffffff1681526020019081526020016000206000828254610a6a919061132c565b925050819055503460046000828254610a83919061132c565b9250508190555042600660003373ffffffffffffffffffffffffffffffffffffffff1673ffffffffffffffffffffffffffffffffffffffff168152602001908152602001600020819055503373ffffffffffffffffffffffffffffffffffffffff167f83b3f5ce88736f0128f880f5cac19836da52ea5c5ca7704c7b38f3b06fffd7ab34604051610b149190610e08565b60405180910390a260019050610b28610c00565b90565b610b33610c0a565b600073ffffffffffffffffffffffffffffffffffffffff168173ffffffffffffffffffffffffffffffffffffffff1603610ba55760006040517f1e4fbdf7000000000000000000000000000000000000000000000000000000008152600401610b9c9190610ec1565b60405180910390fd5b610bae81610c91565b50565b600260005403610bf6576040517f08c379a0000000000000000000000000000000000000000000000000000000008152600401610bed906113ac565b60405180910390fd5b6002600081905550565b6001600081905550565b610c12610d57565b73ffffffffffffffffffffffffffffffffffffffff16610c3061094d565b73ffffffffffffffffffffffffffffffffffffffff1614610c8f57610c53610d57565b6040517f118cdaa7000000000000000000000000000000000000000000000000000000008152600401610c869190610ec1565b60405180910390fd5b565b6000600160009054906101000a900473ffffffffffffffffffffffffffffffffffffffff16905081600160006101000a81548173ffffffffffffffffffffffffffffffffffffffff021916908373ffffffffffffffffffffffffffffffffffffffff1602179055508173ffffffffffffffffffffffffffffffffffffffff168173ffffffffffffffffffffffffffffffffffffffff167f8be0079c531659141344cd1fd0a4f28419497f9722a3daafe3b4186f6b6457e060405160405180910390a35050565b600033905090565b600080fd5b600073ffffffffffffffffffffffffffffffffffffffff82169050919050565b6000610d8f82610d64565b9050919050565b610d9f81610d84565b8114610daa57600080fd5b50565b600081359050610dbc81610d96565b92915050565b600060208284031215610dd857610dd7610d5f565b5b6000610de684828501610dad565b91505092915050565b6000819050919050565b610e0281610def565b82525050565b6000602082019050610e1d6000830184610df9565b92915050565b60008115159050919050565b610e3881610e23565b82525050565b6000602082019050610e536000830184610e2f565b92915050565b610e6281610def565b8114610e6d57600080fd5b50565b600081359050610e7f81610e59565b92915050565b600060208284031215610e9b57610e9a610d5f565b5b6000610ea984828501610e70565b91505092915050565b610ebb81610d84565b82525050565b6000602082019050610ed66000830184610eb2565b92915050565b600082825260208201905092915050565b7f4e6f207265776172647320746f20636c61696d00000000000000000000000000600082015250565b6000610f23601383610edc565b9150610f2e82610eed565b602082019050919050565b60006020820190508181036000830152610f5281610f16565b9050919050565b600081905092915050565b50565b6000610f74600083610f59565b9150610f7f82610f64565b600082019050919050565b6000610f9582610f67565b9150819050919050565b7f4661696c656420746f2073656e64207265776172647300000000000000000000600082015250565b6000610fd5601683610edc565b9150610fe082610f9f565b602082019050919050565b6000602082019050818103600083015261100481610fc8565b9050919050565b7f4e6f2066756e647320746f207769746864726177000000000000000000000000600082015250565b6000611041601483610edc565b915061104c8261100b565b602082019050919050565b6000602082019050818103600083015261107081611034565b9050919050565b7f4e487b7100000000000000000000000000000000000000000000000000000000600052601160045260246000fd5b60006110b182610def565b91506110bc83610def565b92508282039050818111156110d4576110d3611077565b5b92915050565b7f4661696c656420746f2073656e64204574686572000000000000000000000000600082015250565b6000611110601483610edc565b915061111b826110da565b602082019050919050565b6000602082019050818103600083015261113f81611103565b9050919050565b600061115182610def565b915061115c83610def565b925082820261116a81610def565b9150828204841483151761118157611180611077565b5b5092915050565b7f4e487b7100000000000000000000000000000000000000000000000000000000600052601260045260246000fd5b60006111c282610def565b91506111cd83610def565b9250826111dd576111dc611188565b5b828204905092915050565b7f496e73756666696369656e742064656c65676174656420616d6f756e74000000600082015250565b600061121e601d83610edc565b9150611229826111e8565b602082019050919050565b6000602082019050818103600083015261124d81611211565b9050919050565b7f5261746520746f6f206869676800000000000000000000000000000000000000600082015250565b600061128a600d83610edc565b915061129582611254565b602082019050919050565b600060208201905081810360008301526112b98161127d565b9050919050565b7f4d7573742064656c65676174652061206e6f6e2d7a65726f20616d6f756e7400600082015250565b60006112f6601f83610edc565b9150611301826112c0565b602082019050919050565b60006020820190508181036000830152611325816112e9565b9050919050565b600061133782610def565b915061134283610def565b925082820190508082111561135a57611359611077565b5b92915050565b7f5265656e7472616e637947756172643a207265656e7472616e742063616c6c00600082015250565b6000611396601f83610edc565b91506113a182611360565b602082019050919050565b600060208201905081810360008301526113c581611389565b905091905056fea2646970667358221220a134a0084c00ce4c7a15dd6394c24f5d1762b52791bdb631a97c97abbf399cc564736f6c634300081a0033",
  "linkReferences": {},
  "deployedLinkReferences": {}
}